{
  "transactions": [
    {
      "hash": "0x6a3b810211aed9f8849c617962f439a17454b4fb1735ceb3da6e8344209b4116",
      "transactionType": "CALL",
      "contractName": null,
      "contractAddress": "0x8a0e87395f864405c5225ebd80391ac82eefe437",
      "function": "mint(address,address,uint256,bytes32,address[],bytes[],uint256,uint256,int256,uint256,uint256,uint256,uint256)",
      "arguments": [
        "0xd2D120eB7cEd38551cCeFb48021067d41D6542d3",
        "0xC5E851fEC9188DD4F6cCB2Ebc134b33210D4aC78",
        "7",
        "0xaafee1990394e7d6e002e7bdf060c458eac0682c622f7b2e8f12804f11f7a553",
        "[0x277Ee5801D5d1e5126A76c986c96923AB5eC54Ed, 0xe04E22e78E1935b60e8827EB72CEc3b56299c8ee]",
        "[0x00000000000000000000000000000000000000000000000000000000000000640000000000000000000000000000000000000000000000000000000000000bb80000000000000000000000000000000000000000000000000000000000001f40, 0xffffffffffffffffffffffffffffffffffffffffffffffffffffffffffffe8900000000000000000000000000000000000000000000000000000000000001770000000000000000000000000000000000000000000000000000000000000005a000000000000000000000000000000000000000000000000000000000000012c]",
        "200",
        "1200000000000000000000",
        "180",
        "38",
        "432000",
        "180",
        "48000000000000000000"
      ],
      "transaction": {
        "from": "0xd2d120eb7ced38551ccefb48021067d41d6542d3",
        "to": "0x8a0e87395f864405c5225ebd80391ac82eefe437",
        "gas": "0xe2fb7",
        "value": "0x0",
        "input": "0xa9debb7f000000000000000000000000d2d120eb7ced38551ccefb48021067d41d6542d3000000000000000000000000c5e851fec9188dd4f6ccb2ebc134b33210d4ac780000000000000000000000000000000000000000000000000000000000000007aafee1990394e7d6e002e7bdf060c458eac0682c622f7b2e8f12804f11f7a55300000000000000000000000000000000000000000000000000000000000001a0000000000000000000000000000000000000000000000000000000000000020000000000000000000000000000000000000000000000000000000000000000c80000000000000000000000000000000000000000000000410d586a20a4c0000000000000000000000000000000000000000000000000000000000000000000b40000000000000000000000000000000000000000000000000000000000000026000000000000000000000000000000000000000000000000000000000006978000000000000000000000000000000000000000000000000000000000000000b40000000000000000000000000000000000000000000000029a2241af62c000000000000000000000000000000000000000000000000000000000000000000002000000000000000000000000277ee5801d5d1e5126a76c986c96923ab5ec54ed000000000000000000000000e04e22e78e1935b60e8827eb72cec3b56299c8ee0000000000000000000000000000000000000000000000000000000000000002000000000000000000000000000000000000000000000000000000000000004000000000000000000000000000000000000000000000000000000000000000c0000000000000000000000000000000000000000000000000000000000000006000000000000000000000000000000000000000000000000000000000000000640000000000000000000000000000000000000000000000000000000000000bb80000000000000000000000000000000000000000000000000000000000001f400000000000000000000000000000000000000000000000000000000000000080ffffffffffffffffffffffffffffffffffffffffffffffffffffffffffffe8900000000000000000000000000000000000000000000000000000000000001770000000000000000000000000000000000000000000000000000000000000005a000000000000000000000000000000000000000000000000000000000000012c",
        "nonce": "0x5e",
        "chainId": "0xc4"
      },
      "additionalContracts": [],
      "isFixedGasLimit": false
    },
    {
      "hash": "0x23886d5e92f59b27ef25f0b8b122eea5b481fb53c9bfaa23ff50cec003cda2c6",
      "transactionType": "CALL",
      "contractName": null,
      "contractAddress": "0x8a0e87395f864405c5225ebd80391ac82eefe437",
      "function": "mint(address,address,uint256,bytes32,address[],bytes[],uint256,uint256,int256,uint256,uint256,uint256,uint256)",
      "arguments": [
        "0xd2D120eB7cEd38551cCeFb48021067d41D6542d3",
        "0xC5E851fEC9188DD4F6cCB2Ebc134b33210D4aC78",
        "3",
        "0x8dc15a4a1d4a8b164c1748ba4a7a7312334cb81cc611a0dab47410525b5c80cf",
        "[0x277Ee5801D5d1e5126A76c986c96923AB5eC54Ed, 0xA4f6ABd6F77928b06F075637ccBACA8f89e17386, 0xe04E22e78E1935b60e8827EB72CEc3b56299c8ee]",
        "[0x00000000000000000000000000000000000000000000000000000000000003e80000000000000000000000000000000000000000000000000000000000003a980000000000000000000000000000000000000000000000000000000000002ee0, 0x0000000000000000000000000000000000000000000000000000000000000003000000000000000000000000000000000000000000000000000000000000271000000000000000000000000000000000000000000000000000000000000013880000000000000000000000000000000000000000000000000000000000000001, 0xffffffffffffffffffffffffffffffffffffffffffffffffffffffffffffe890000000000000000000000000000000000000000000000000000000000000177000000000000000000000000000000000000000000000000000000000000000460000000000000000000000000000000000000000000000000000000000000078]",
        "85",
        "500000000000000000000",
        "280",
        "45",
        "259200",
        "650",
        "2450000000000000000000"
      ],
      "transaction": {
        "from": "0xd2d120eb7ced38551ccefb48021067d41d6542d3",
        "to": "0x8a0e87395f864405c5225ebd80391ac82eefe437",
        "gas": "0xf879b",
        "value": "0x0",
        "input": "0xa9debb7f000000000000000000000000d2d120eb7ced38551ccefb48021067d41d6542d3000000000000000000000000c5e851fec9188dd4f6ccb2ebc134b33210d4ac7800000000000000000000000000000000000000000000000000000000000000038dc15a4a1d4a8b164c1748ba4a7a7312334cb81cc611a0dab47410525b5c80cf00000000000000000000000000000000000000000000000000000000000001a00000000000000000000000000000000000000000000000000000000000000220000000000000000000000000000000000000000000000000000000000000005500000000000000000000000000000000000000000000001b1ae4d6e2ef5000000000000000000000000000000000000000000000000000000000000000000118000000000000000000000000000000000000000000000000000000000000002d000000000000000000000000000000000000000000000000000000000003f480000000000000000000000000000000000000000000000000000000000000028a000000000000000000000000000000000000000000000084d0948357fb0800000000000000000000000000000000000000000000000000000000000000000003000000000000000000000000277ee5801d5d1e5126a76c986c96923ab5ec54ed000000000000000000000000a4f6abd6f77928b06f075637ccbaca8f89e17386000000000000000000000000e04e22e78e1935b60e8827eb72cec3b56299c8ee0000000000000000000000000000000000000000000000000000000000000003000000000000000000000000000000000000000000000000000000000000006000000000000000000000000000000000000000000000000000000000000000e00000000000000000000000000000000000000000000000000000000000000180000000000000000000000000000000000000000000000000000000000000006000000000000000000000000000000000000000000000000000000000000003e80000000000000000000000000000000000000000000000000000000000003a980000000000000000000000000000000000000000000000000000000000002ee0000000000000000000000000000000000000000000000000000000000000008000000000000000000000000000000000000000000000000000000000000000030000000000000000000000000000000000000000000000000000000000002710000000000000000000000000000000000000000000000000000000000000138800000000000000000000000000000000000000000000000000000000000000010000000000000000000000000000000000000000000000000000000000000080ffffffffffffffffffffffffffffffffffffffffffffffffffffffffffffe890000000000000000000000000000000000000000000000000000000000000177000000000000000000000000000000000000000000000000000000000000000460000000000000000000000000000000000000000000000000000000000000078",
        "nonce": "0x5f",
        "chainId": "0xc4"
      },
      "additionalContracts": [],
      "isFixedGasLimit": false
    },
    {
      "hash": "0xd7d7f21931580a3184915d99ae90c9d1bda217808efa91d1800c0ce2e55ccc5e",
      "transactionType": "CALL",
      "contractName": null,
      "contractAddress": "0x8a0e87395f864405c5225ebd80391ac82eefe437",
      "function": "mint(address,address,uint256,bytes32,address[],bytes[],uint256,uint256,int256,uint256,uint256,uint256,uint256)",
      "arguments": [
        "0xd2D120eB7cEd38551cCeFb48021067d41D6542d3",
        "0xC5E851fEC9188DD4F6cCB2Ebc134b33210D4aC78",
        "5",
        "0x8dc15a4a1d4a8b164c1748ba4a7a7312334cb81cc611a0dab47410525b5c80cf",
        "[0x277Ee5801D5d1e5126A76c986c96923AB5eC54Ed, 0xA4f6ABd6F77928b06F075637ccBACA8f89e17386, 0xe04E22e78E1935b60e8827EB72CEc3b56299c8ee]",
        "[0x00000000000000000000000000000000000000000000000000000000000001f400000000000000000000000000000000000000000000000000000000000013880000000000000000000000000000000000000000000000000000000000002328, 0x0000000000000000000000000000000000000000000000000000000000000003000000000000000000000000000000000000000000000000000000000000271000000000000000000000000000000000000000000000000000000000000013880000000000000000000000000000000000000000000000000000000000000000, 0xffffffffffffffffffffffffffffffffffffffffffffffffffffffffffffe8900000000000000000000000000000000000000000000000000000000000001770000000000000000000000000000000000000000000000000000000000000004b000000000000000000000000000000000000000000000000000000000000012c]",
        "120",
        "800000000000000000000",
        "450",
        "62",
        "345600",
        "420",
        "2520000000000000000000"
      ],
      "transaction": {
        "from": "0xd2d120eb7ced38551ccefb48021067d41d6542d3",
        "to": "0x8a0e87395f864405c5225ebd80391ac82eefe437",
        "gas": "0xf1c2b",
        "value": "0x0",
        "input": "0xa9debb7f000000000000000000000000d2d120eb7ced38551ccefb48021067d41d6542d3000000000000000000000000c5e851fec9188dd4f6ccb2ebc134b33210d4ac7800000000000000000000000000000000000000000000000000000000000000058dc15a4a1d4a8b164c1748ba4a7a7312334cb81cc611a0dab47410525b5c80cf00000000000000000000000000000000000000000000000000000000000001a00000000000000000000000000000000000000000000000000000000000000220000000000000000000000000000000000000000000000000000000000000007800000000000000000000000000000000000000000000002b5e3af16b1880000000000000000000000000000000000000000000000000000000000000000001c2000000000000000000000000000000000000000000000000000000000000003e000000000000000000000000000000000000000000000000000000000005460000000000000000000000000000000000000000000000000000000000000001a40000000000000000000000000000000000000000000000889c067877c06000000000000000000000000000000000000000000000000000000000000000000003000000000000000000000000277ee5801d5d1e5126a76c986c96923ab5ec54ed000000000000000000000000a4f6abd6f77928b06f075637ccbaca8f89e17386000000000000000000000000e04e22e78e1935b60e8827eb72cec3b56299c8ee0000000000000000000000000000000000000000000000000000000000000003000000000000000000000000000000000000000000000000000000000000006000000000000000000000000000000000000000000000000000000000000000e00000000000000000000000000000000000000000000000000000000000000180000000000000000000000000000000000000000000000000000000000000006000000000000000000000000000000000000000000000000000000000000001f400000000000000000000000000000000000000000000000000000000000013880000000000000000000000000000000000000000000000000000000000002328000000000000000000000000000000000000000000000000000000000000008000000000000000000000000000000000000000000000000000000000000000030000000000000000000000000000000000000000000000000000000000002710000000000000000000000000000000000000000000000000000000000000138800000000000000000000000000000000000000000000000000000000000000000000000000000000000000000000000000000000000000000000000000000080ffffffffffffffffffffffffffffffffffffffffffffffffffffffffffffe8900000000000000000000000000000000000000000000000000000000000001770000000000000000000000000000000000000000000000000000000000000004b000000000000000000000000000000000000000000000000000000000000012c",
        "nonce": "0x60",
        "chainId": "0xc4"
      },
      "additionalContracts": [],
      "isFixedGasLimit": false
    },
    {
      "hash": "0xdbbdc42e7b4e35de0005bea1851c6b5590850937b80e8d943814ba4104ece630",
      "transactionType": "CALL",
      "contractName": null,
      "contractAddress": "0x8a0e87395f864405c5225ebd80391ac82eefe437",
      "function": "mint(address,address,uint256,bytes32,address[],bytes[],uint256,uint256,int256,uint256,uint256,uint256,uint256)",
      "arguments": [
        "0xd2D120eB7cEd38551cCeFb48021067d41D6542d3",
        "0xC5E851fEC9188DD4F6cCB2Ebc134b33210D4aC78",
        "10",
        "0xd6c507a3879ecae57454362d8dea5fe5aa700645781b52f496943319c86acf31",
        "[0x277Ee5801D5d1e5126A76c986c96923AB5eC54Ed, 0xA4f6ABd6F77928b06F075637ccBACA8f89e17386, 0xe04E22e78E1935b60e8827EB72CEc3b56299c8ee, 0xd969448dfc24Fe3Aff25e86db338fAB41b104319, 0xCFc867E2379Cbe097D934CB8e19e3F028B82Bd3D]",
        "[0x00000000000000000000000000000000000000000000000000000000000003200000000000000000000000000000000000000000000000000000000000002ee00000000000000000000000000000000000000000000000000000000000002af8, 0x00000000000000000000000000000000000000000000000000000000000000050000000000000000000000000000000000000000000000000000000000003a980000000000000000000000000000000000000000000000000000000000001f400000000000000000000000000000000000000000000000000000000000000001, 0xfffffffffffffffffffffffffffffffffffffffffffffffffffffffffffff0600000000000000000000000000000000000000000000000000000000000000fa0000000000000000000000000000000000000000000000000000000000000003c000000000000000000000000000000000000000000000000000000000000005a, 0x00000000000000000000000000000000000000000000000000000000000001f400000000000000000000000000000000000000000000000000000000000027100000000000000000000000000000000000000000000000000000000000000001, 0x0000000000000000000000000000000000000000000000000000000000000e10000000000000000000000000000000000000000000000000000000000000012c0000000000000000000000000000000000000000000000000000000000000001]",
        "50",
        "300000000000000000000",
        "-120",
        "80",
        "172800",
        "900",
        "2200000000000000000000"
      ],
      "transaction": {
        "from": "0xd2d120eb7ced38551ccefb48021067d41d6542d3",
        "to": "0x8a0e87395f864405c5225ebd80391ac82eefe437",
        "gas": "0x157e40",
        "value": "0x0",
        "input": "0xa9debb7f000000000000000000000000d2d120eb7ced38551ccefb48021067d41d6542d3000000000000000000000000c5e851fec9188dd4f6ccb2ebc134b33210d4ac78000000000000000000000000000000000000000000000000000000000000000ad6c507a3879ecae57454362d8dea5fe5aa700645781b52f496943319c86acf3100000000000000000000000000000000000000000000000000000000000001a00000000000000000000000000000000000000000000000000000000000000260000000000000000000000000000000000000000000000000000000000000003200000000000000000000000000000000000000000000001043561a8829300000ffffffffffffffffffffffffffffffffffffffffffffffffffffffffffffff880000000000000000000000000000000000000000000000000000000000000050000000000000000000000000000000000000000000000000000000000002a3000000000000000000000000000000000000000000000000000000000000000384000000000000000000000000000000000000000000000077432217e6836000000000000000000000000000000000000000000000000000000000000000000005000000000000000000000000277ee5801d5d1e5126a76c986c96923ab5ec54ed000000000000000000000000a4f6abd6f77928b06f075637ccbaca8f89e17386000000000000000000000000e04e22e78e1935b60e8827eb72cec3b56299c8ee000000000000000000000000d969448dfc24fe3aff25e86db338fab41b104319000000000000000000000000cfc867e2379cbe097d934cb8e19e3f028b82bd3d000000000000000000000000000000000000000000000000000000000000000500000000000000000000000000000000000000000000000000000000000000a0000000000000000000000000000000000000000000000000000000000000012000000000000000000000000000000000000000000000000000000000000001c0000000000000000000000000000000000000000000000000000000000000026000000000000000000000000000000000000000000000000000000000000002e0000000000000000000000000000000000000000000000000000000000000006000000000000000000000000000000000000000000000000000000000000003200000000000000000000000000000000000000000000000000000000000002ee00000000000000000000000000000000000000000000000000000000000002af8000000000000000000000000000000000000000000000000000000000000008000000000000000000000000000000000000000000000000000000000000000050000000000000000000000000000000000000000000000000000000000003a980000000000000000000000000000000000000000000000000000000000001f4000000000000000000000000000000000000000000000000000000000000000010000000000000000000000000000000000000000000000000000000000000080fffffffffffffffffffffffffffffffffffffffffffffffffffffffffffff0600000000000000000000000000000000000000000000000000000000000000fa0000000000000000000000000000000000000000000000000000000000000003c000000000000000000000000000000000000000000000000000000000000005a000000000000000000000000000000000000000000000000000000000000006000000000000000000000000000000000000000000000000000000000000001f40000000000000000000000000000000000000000000000000000000000002710000000000000000000000000000000000000000000000000000000000000000100000000000000000000000000000000000000000000000000000000000000600000000000000000000000000000000000000000000000000000000000000e10000000000000000000000000000000000000000000000000000000000000012c0000000000000000000000000000000000000000000000000000000000000001",
        "nonce": "0x61",
        "chainId": "0xc4"
      },
      "additionalContracts": [],
      "isFixedGasLimit": false
    },
    {
      "hash": "0x5e741e375ad6012d794a3014ba7ef83e334a513426b4d1eac9f954479945432f",
      "transactionType": "CALL",
      "contractName": null,
      "contractAddress": "0x8a0e87395f864405c5225ebd80391ac82eefe437",
      "function": "mint(address,address,uint256,bytes32,address[],bytes[],uint256,uint256,int256,uint256,uint256,uint256,uint256)",
      "arguments": [
        "0xd2D120eB7cEd38551cCeFb48021067d41D6542d3",
        "0xC5E851fEC9188DD4F6cCB2Ebc134b33210D4aC78",
        "12",
        "0x7c6407a87e28a54071124b62c6405f3d9735ef1b36dad29cebb7084e87b8ff77",
        "[0x277Ee5801D5d1e5126A76c986c96923AB5eC54Ed, 0xd969448dfc24Fe3Aff25e86db338fAB41b104319, 0xe04E22e78E1935b60e8827EB72CEc3b56299c8ee]",
        "[0x00000000000000000000000000000000000000000000000000000000000000c80000000000000000000000000000000000000000000000000000000000000fa00000000000000000000000000000000000000000000000000000000000002134, 0x000000000000000000000000000000000000000000000000000000000000012c0000000000000000000000000000000000000000000000000000000000001f400000000000000000000000000000000000000000000000000000000000000001, 0xffffffffffffffffffffffffffffffffffffffffffffffffffffffffffffec780000000000000000000000000000000000000000000000000000000000001388000000000000000000000000000000000000000000000000000000000000005500000000000000000000000000000000000000000000000000000000000000f0]",
        "150",
        "900000000000000000000",
        "220",
        "55",
        "388800",
        "300",
        "52000000000000000000"
      ],
      "transaction": {
        "from": "0xd2d120eb7ced38551ccefb48021067d41d6542d3",
        "to": "0x8a0e87395f864405c5225ebd80391ac82eefe437",
        "gas": "0xf0eef",
        "value": "0x0",
        "input": "0xa9debb7f000000000000000000000000d2d120eb7ced38551ccefb48021067d41d6542d3000000000000000000000000c5e851fec9188dd4f6ccb2ebc134b33210d4ac78000000000000000000000000000000000000000000000000000000000000000c7c6407a87e28a54071124b62c6405f3d9735ef1b36dad29cebb7084e87b8ff7700000000000000000000000000000000000000000000000000000000000001a000000000000000000000000000000000000000000000000000000000000002200000000000000000000000000000000000000000000000000000000000000096000000000000000000000000000000000000000000000030ca024f987b90000000000000000000000000000000000000000000000000000000000000000000dc0000000000000000000000000000000000000000000000000000000000000037000000000000000000000000000000000000000000000000000000000005eec0000000000000000000000000000000000000000000000000000000000000012c000000000000000000000000000000000000000000000002d1a51c7e005000000000000000000000000000000000000000000000000000000000000000000003000000000000000000000000277ee5801d5d1e5126a76c986c96923ab5ec54ed000000000000000000000000d969448dfc24fe3aff25e86db338fab41b104319000000000000000000000000e04e22e78e1935b60e8827eb72cec3b56299c8ee0000000000000000000000000000000000000000000000000000000000000003000000000000000000000000000000000000000000000000000000000000006000000000000000000000000000000000000000000000000000000000000000e00000000000000000000000000000000000000000000000000000000000000160000000000000000000000000000000000000000000000000000000000000006000000000000000000000000000000000000000000000000000000000000000c80000000000000000000000000000000000000000000000000000000000000fa000000000000000000000000000000000000000000000000000000000000021340000000000000000000000000000000000000000000000000000000000000060000000000000000000000000000000000000000000000000000000000000012c0000000000000000000000000000000000000000000000000000000000001f4000000000000000000000000000000000000000000000000000000000000000010000000000000000000000000000000000000000000000000000000000000080ffffffffffffffffffffffffffffffffffffffffffffffffffffffffffffec780000000000000000000000000000000000000000000000000000000000001388000000000000000000000000000000000000000000000000000000000000005500000000000000000000000000000000000000000000000000000000000000f0",
        "nonce": "0x62",
        "chainId": "0xc4"
      },
      "additionalContracts": [],
      "isFixedGasLimit": false
    }
  ],
  "receipts": [
    {
      "status": "0x1",
      "cumulativeGasUsed": "0xb6668",
      "logs": [
        {
          "address": "0x8a0e87395f864405c5225ebd80391ac82eefe437",
          "topics": [
            "0xddf252ad1be2c89b69c2b068fc378daa952ba7f163c4a11628f55a4df523b3ef",
            "0x0000000000000000000000000000000000000000000000000000000000000000",
            "0x000000000000000000000000d2d120eb7ced38551ccefb48021067d41d6542d3",
            "0x0000000000000000000000000000000000000000000000000000000000000000"
          ],
          "data": "0x",
          "blockHash": "0x4fa08ed47d9eb1571111c8d43c5e0cb346b9f46f3cd7725b78fcd45b920c3364",
          "blockNumber": "0x35e6afb",
          "blockTimestamp": "0x69d0c087",
          "transactionHash": "0x6a3b810211aed9f8849c617962f439a17454b4fb1735ceb3da6e8344209b4116",
          "transactionIndex": "0x2",
          "logIndex": "0x2",
          "removed": false
        },
        {
          "address": "0x8a0e87395f864405c5225ebd80391ac82eefe437",
          "topics": [
            "0x20dedb2c3d1aa63a6bab56ec423782420ebc8123cf8baae0cf11d7f5eef3f880",
            "0x0000000000000000000000000000000000000000000000000000000000000000",
            "0x000000000000000000000000c5e851fec9188dd4f6ccb2ebc134b33210d4ac78"
          ],
          "data": "0x000000000000000000000000000000000000000000000000000000000000000700000000000000000000000000000000000000000000000000000000000000b400000000000000000000000000000000000000000000000000000000000000c8",
          "blockHash": "0x4fa08ed47d9eb1571111c8d43c5e0cb346b9f46f3cd7725b78fcd45b920c3364",
          "blockNumber": "0x35e6afb",
          "blockTimestamp": "0x69d0c087",
          "transactionHash": "0x6a3b810211aed9f8849c617962f439a17454b4fb1735ceb3da6e8344209b4116",
          "transactionIndex": "0x2",
          "logIndex": "0x3",
          "removed": false
        }
      ],
      "logsBloom": "0x00001000000000000000000000000000000000000000000000000000000000000000000000000000000000000000000000000000000000000000000000000000000400000000000000000008000000000000000000004000000000000000000000000000020000000000000000100800000000000000000001000010000000000020000000000000000000100000000000000000000000000000000000000000000000000000000000000000000000000010200000000000000000000000000000000002000000000000000000000000000100000000000000000000000020004004000000000000000000000000000000000000000000000000000000000000",
      "type": "0x2",
      "transactionHash": "0x6a3b810211aed9f8849c617962f439a17454b4fb1735ceb3da6e8344209b4116",
      "transactionIndex": "0x2",
      "blockHash": "0x4fa08ed47d9eb1571111c8d43c5e0cb346b9f46f3cd7725b78fcd45b920c3364",
      "blockNumber": "0x35e6afb",
      "gasUsed": "0x9b33a",
      "effectiveGasPrice": "0x1312d01",
      "blobGasUsed": "0x1e780",
      "from": "0xd2d120eb7ced38551ccefb48021067d41d6542d3",
      "to": "0x8a0e87395f864405c5225ebd80391ac82eefe437",
      "contractAddress": null,
      "daFootprintGasScalar": "0x190",
      "l1BaseFeeScalar": "0x0",
      "l1BlobBaseFee": "0x8a856c",
      "l1BlobBaseFeeScalar": "0x0",
      "l1Fee": "0x0",
      "l1GasPrice": "0x9cea3b9",
      "l1GasUsed": "0x1381"
    },
    {
      "status": "0x1",
      "cumulativeGasUsed": "0x16a4ad",
      "logs": [
        {
          "address": "0x8a0e87395f864405c5225ebd80391ac82eefe437",
          "topics": [
            "0xddf252ad1be2c89b69c2b068fc378daa952ba7f163c4a11628f55a4df523b3ef",
            "0x0000000000000000000000000000000000000000000000000000000000000000",
            "0x000000000000000000000000d2d120eb7ced38551ccefb48021067d41d6542d3",
            "0x0000000000000000000000000000000000000000000000000000000000000001"
          ],
          "data": "0x",
          "blockHash": "0x4fa08ed47d9eb1571111c8d43c5e0cb346b9f46f3cd7725b78fcd45b920c3364",
          "blockNumber": "0x35e6afb",
          "blockTimestamp": "0x69d0c087",
          "transactionHash": "0x23886d5e92f59b27ef25f0b8b122eea5b481fb53c9bfaa23ff50cec003cda2c6",
          "transactionIndex": "0x3",
          "logIndex": "0x4",
          "removed": false
        },
        {
          "address": "0x8a0e87395f864405c5225ebd80391ac82eefe437",
          "topics": [
            "0x20dedb2c3d1aa63a6bab56ec423782420ebc8123cf8baae0cf11d7f5eef3f880",
            "0x0000000000000000000000000000000000000000000000000000000000000001",
            "0x000000000000000000000000c5e851fec9188dd4f6ccb2ebc134b33210d4ac78"
          ],
          "data": "0x000000000000000000000000000000000000000000000000000000000000000300000000000000000000000000000000000000000000000000000000000001180000000000000000000000000000000000000000000000000000000000000055",
          "blockHash": "0x4fa08ed47d9eb1571111c8d43c5e0cb346b9f46f3cd7725b78fcd45b920c3364",
          "blockNumber": "0x35e6afb",
          "blockTimestamp": "0x69d0c087",
          "transactionHash": "0x23886d5e92f59b27ef25f0b8b122eea5b481fb53c9bfaa23ff50cec003cda2c6",
          "transactionIndex": "0x3",
          "logIndex": "0x5",
          "removed": false
        }
      ],
      "logsBloom": "0x00001000000000000000000000000000000000000000000000000000000000000000000000000000000000000000000000000000000000000000000000040000000400000000000000000008000000000000000000044000000000000000000000000000020000000000000000100800000000000000000001000010000000000020000000000000000000100000000000000000000000000000000000000000000000000000000000000000000000000010200000000000000000000000000000000002000000000000000000000000000100000000000000000000000060004004000000000000000000000000000000000000000000000000000000000000",
      "type": "0x2",
      "transactionHash": "0x23886d5e92f59b27ef25f0b8b122eea5b481fb53c9bfaa23ff50cec003cda2c6",
      "transactionIndex": "0x3",
      "blockHash": "0x4fa08ed47d9eb1571111c8d43c5e0cb346b9f46f3cd7725b78fcd45b920c3364",
      "blockNumber": "0x35e6afb",
      "gasUsed": "0xb3e45",
      "effectiveGasPrice": "0x1312d01",
      "blobGasUsed": "0x23f00",
      "from": "0xd2d120eb7ced38551ccefb48021067d41d6542d3",
      "to": "0x8a0e87395f864405c5225ebd80391ac82eefe437",
      "contractAddress": null,
      "daFootprintGasScalar": "0x190",
      "l1BaseFeeScalar": "0x0",
      "l1BlobBaseFee": "0x8a856c",
      "l1BlobBaseFeeScalar": "0x0",
      "l1Fee": "0x0",
      "l1GasPrice": "0x9cea3b9",
      "l1GasUsed": "0x1702"
    },
    {
      "status": "0x1",
      "cumulativeGasUsed": "0x21952a",
      "logs": [
        {
          "address": "0x8a0e87395f864405c5225ebd80391ac82eefe437",
          "topics": [
            "0xddf252ad1be2c89b69c2b068fc378daa952ba7f163c4a11628f55a4df523b3ef",
            "0x0000000000000000000000000000000000000000000000000000000000000000",
            "0x000000000000000000000000d2d120eb7ced38551ccefb48021067d41d6542d3",
            "0x0000000000000000000000000000000000000000000000000000000000000002"
          ],
          "data": "0x",
          "blockHash": "0x4fa08ed47d9eb1571111c8d43c5e0cb346b9f46f3cd7725b78fcd45b920c3364",
          "blockNumber": "0x35e6afb",
          "blockTimestamp": "0x69d0c087",
          "transactionHash": "0xdbbdc42e7b4e35de0005bea1851c6b5590850937b80e8d943814ba4104ece630",
          "transactionIndex": "0x4",
          "logIndex": "0x6",
          "removed": false
        },
        {
          "address": "0x8a0e87395f864405c5225ebd80391ac82eefe437",
          "topics": [
            "0x20dedb2c3d1aa63a6bab56ec423782420ebc8123cf8baae0cf11d7f5eef3f880",
            "0x0000000000000000000000000000000000000000000000000000000000000002",
            "0x000000000000000000000000c5e851fec9188dd4f6ccb2ebc134b33210d4ac78"
          ],
          "data": "0x000000000000000000000000000000000000000000000000000000000000000500000000000000000000000000000000000000000000000000000000000001c20000000000000000000000000000000000000000000000000000000000000078",
          "blockHash": "0x4fa08ed47d9eb1571111c8d43c5e0cb346b9f46f3cd7725b78fcd45b920c3364",
          "blockNumber": "0x35e6afb",
          "blockTimestamp": "0x69d0c087",
          "transactionHash": "0xdbbdc42e7b4e35de0005bea1851c6b5590850937b80e8d943814ba4104ece630",
          "transactionIndex": "0x4",
          "logIndex": "0x7",
          "removed": false
        }
      ],
      "logsBloom": "0x04001000000000000000000000000000000000000000000000000000000000000000000000000000000000000000000000000000000000000000000000000000000400000000000000000008000000000000000000004000000000000000000000000000020000000000000000100800000000000000000001000010000000000020000000000000000000100000000000000000000000000000000000000000000000000000000000000100000000000010200000000000000000000000000000000002000000000000000000000000000100000000000000000000000020004004000000000000000000000000000000000000008000000000000000000000",
      "type": "0x2",
      "transactionHash": "0xdbbdc42e7b4e35de0005bea1851c6b5590850937b80e8d943814ba4104ece630",
      "transactionIndex": "0x4",
      "blockHash": "0x4fa08ed47d9eb1571111c8d43c5e0cb346b9f46f3cd7725b78fcd45b920c3364",
      "blockNumber": "0x35e6afb",
      "gasUsed": "0xaf07d",
      "effectiveGasPrice": "0x1312d01",
      "blobGasUsed": "0x22600",
      "from": "0xd2d120eb7ced38551ccefb48021067d41d6542d3",
      "to": "0x8a0e87395f864405c5225ebd80391ac82eefe437",
      "contractAddress": null,
      "daFootprintGasScalar": "0x190",
      "l1BaseFeeScalar": "0x0",
      "l1BlobBaseFee": "0x8a856c",
      "l1BlobBaseFeeScalar": "0x0",
      "l1Fee": "0x0",
      "l1GasPrice": "0x9cea3b9",
      "l1GasUsed": "0x1603"
    },
    {
      "status": "0x1",
      "cumulativeGasUsed": "0x304763",
      "logs": [
        {
          "address": "0x8a0e87395f864405c5225ebd80391ac82eefe437",
          "topics": [
            "0xddf252ad1be2c89b69c2b068fc378daa952ba7f163c4a11628f55a4df523b3ef",
            "0x0000000000000000000000000000000000000000000000000000000000000000",
            "0x000000000000000000000000d2d120eb7ced38551ccefb48021067d41d6542d3",
            "0x0000000000000000000000000000000000000000000000000000000000000003"
          ],
          "data": "0x",
          "blockHash": "0x4fa08ed47d9eb1571111c8d43c5e0cb346b9f46f3cd7725b78fcd45b920c3364",
          "blockNumber": "0x35e6afb",
          "blockTimestamp": "0x69d0c087",
          "transactionHash": "0x5e741e375ad6012d794a3014ba7ef83e334a513426b4d1eac9f954479945432f",
          "transactionIndex": "0x5",
          "logIndex": "0x8",
          "removed": false
        },
        {
          "address": "0x8a0e87395f864405c5225ebd80391ac82eefe437",
          "topics": [
            "0x20dedb2c3d1aa63a6bab56ec423782420ebc8123cf8baae0cf11d7f5eef3f880",
            "0x0000000000000000000000000000000000000000000000000000000000000003",
            "0x000000000000000000000000c5e851fec9188dd4f6ccb2ebc134b33210d4ac78"
          ],
          "data": "0x000000000000000000000000000000000000000000000000000000000000000affffffffffffffffffffffffffffffffffffffffffffffffffffffffffffff880000000000000000000000000000000000000000000000000000000000000032",
          "blockHash": "0x4fa08ed47d9eb1571111c8d43c5e0cb346b9f46f3cd7725b78fcd45b920c3364",
          "blockNumber": "0x35e6afb",
          "blockTimestamp": "0x69d0c087",
          "transactionHash": "0x5e741e375ad6012d794a3014ba7ef83e334a513426b4d1eac9f954479945432f",
          "transactionIndex": "0x5",
          "logIndex": "0x9",
          "removed": false
        }
      ],
      "logsBloom": "0x00001000000000000000000000000000000000000000000000000000000000000000000000000000000000000000000000000000020000000000000000000000000400000000000000000008000000000000000000004000000000000000000000000000020000000000000000100800000000000000000001000010000000000020000000000000000000100000000000000000000000000000000000000000000000000000000000000000000000000010200000800000000000000000400000000002000000000000000000000000000100000000000000000000000020004004000000000000000000000000000000000000000000000000000000000000",
      "type": "0x2",
      "transactionHash": "0x5e741e375ad6012d794a3014ba7ef83e334a513426b4d1eac9f954479945432f",
      "transactionIndex": "0x5",
      "blockHash": "0x4fa08ed47d9eb1571111c8d43c5e0cb346b9f46f3cd7725b78fcd45b920c3364",
      "blockNumber": "0x35e6afb",
      "gasUsed": "0xeb239",
      "effectiveGasPrice": "0x1312d01",
      "blobGasUsed": "0x2cec0",
      "from": "0xd2d120eb7ced38551ccefb48021067d41d6542d3",
      "to": "0x8a0e87395f864405c5225ebd80391ac82eefe437",
      "contractAddress": null,
      "daFootprintGasScalar": "0x190",
      "l1BaseFeeScalar": "0x0",
      "l1BlobBaseFee": "0x8a856c",
      "l1BlobBaseFeeScalar": "0x0",
      "l1Fee": "0x0",
      "l1GasPrice": "0x9cea3b9",
      "l1GasUsed": "0x1ccf"
    },
    {
      "status": "0x1",
      "cumulativeGasUsed": "0x3b2e4b",
      "logs": [
        {
          "address": "0x8a0e87395f864405c5225ebd80391ac82eefe437",
          "topics": [
            "0xddf252ad1be2c89b69c2b068fc378daa952ba7f163c4a11628f55a4df523b3ef",
            "0x0000000000000000000000000000000000000000000000000000000000000000",
            "0x000000000000000000000000d2d120eb7ced38551ccefb48021067d41d6542d3",
            "0x0000000000000000000000000000000000000000000000000000000000000004"
          ],
          "data": "0x",
          "blockHash": "0x4fa08ed47d9eb1571111c8d43c5e0cb346b9f46f3cd7725b78fcd45b920c3364",
          "blockNumber": "0x35e6afb",
          "blockTimestamp": "0x69d0c087",
          "transactionHash": "0xd7d7f21931580a3184915d99ae90c9d1bda217808efa91d1800c0ce2e55ccc5e",
          "transactionIndex": "0x6",
          "logIndex": "0xa",
          "removed": false
        },
        {
          "address": "0x8a0e87395f864405c5225ebd80391ac82eefe437",
          "topics": [
            "0x20dedb2c3d1aa63a6bab56ec423782420ebc8123cf8baae0cf11d7f5eef3f880",
            "0x0000000000000000000000000000000000000000000000000000000000000004",
            "0x000000000000000000000000c5e851fec9188dd4f6ccb2ebc134b33210d4ac78"
          ],
          "data": "0x000000000000000000000000000000000000000000000000000000000000000c00000000000000000000000000000000000000000000000000000000000000dc0000000000000000000000000000000000000000000000000000000000000096",
          "blockHash": "0x4fa08ed47d9eb1571111c8d43c5e0cb346b9f46f3cd7725b78fcd45b920c3364",
          "blockNumber": "0x35e6afb",
          "blockTimestamp": "0x69d0c087",
          "transactionHash": "0xd7d7f21931580a3184915d99ae90c9d1bda217808efa91d1800c0ce2e55ccc5e",
          "transactionIndex": "0x6",
          "logIndex": "0xb",
          "removed": false
        }
      ],
      "logsBloom": "0x00001000000000000000000000000000000000000000000000000000000000000000000000000000000000000000000000000000000000000000000000000000000400000000000000000008000000000000000000004000000000000000000008000000020000000000000000100800000000000000000001000010000000000020000000000000000000100000000000000000000000000000000000000000000000000000000000000000000000000010200000000000002000000000000000000002000000000000000000000000000100008000000000000000000020004004000000000000000000000000000000000000000000000000000000000000",
      "type": "0x2",
      "transactionHash": "0xd7d7f21931580a3184915d99ae90c9d1bda217808efa91d1800c0ce2e55ccc5e",
      "transactionIndex": "0x6",
      "blockHash": "0x4fa08ed47d9eb1571111c8d43c5e0cb346b9f46f3cd7725b78fcd45b920c3364",
      "blockNumber": "0x35e6afb",
      "gasUsed": "0xae6e8",
      "effectiveGasPrice": "0x1312d01",
      "blobGasUsed": "0x22f60",
      "from": "0xd2d120eb7ced38551ccefb48021067d41d6542d3",
      "to": "0x8a0e87395f864405c5225ebd80391ac82eefe437",
      "contractAddress": null,
      "daFootprintGasScalar": "0x190",
      "l1BaseFeeScalar": "0x0",
      "l1BlobBaseFee": "0x8a856c",
      "l1BlobBaseFeeScalar": "0x0",
      "l1Fee": "0x0",
      "l1GasPrice": "0x9cea3b9",
      "l1GasUsed": "0x166e"
    }
  ],
  "libraries": [],
  "pending": [],
  "returns": {},
  "timestamp": 1775288456109,
  "chain": 196,
  "commit": "ea9fe2a"
}