{
  "transactions": [
    {
      "hash": "0x8b4ba0b0f5ddcb8c451af5b3ba8813b63e04f58302f632fc916620617c0c906e",
      "transactionType": "CALL",
      "contractName": null,
      "contractAddress": "0xe538905cf8410324e03a5a23c1c177a474d59b2b",
      "function": "deposit()",
      "arguments": [],
      "transaction": {
        "from": "0xd2d120eb7ced38551ccefb48021067d41d6542d3",
        "to": "0xe538905cf8410324e03a5a23c1c177a474d59b2b",
        "gas": "0x108aa",
        "value": "0x2386f26fc10000",
        "input": "0xd0e30db0",
        "nonce": "0x7b",
        "chainId": "0xc4"
      },
      "additionalContracts": [],
      "isFixedGasLimit": false
    },
    {
      "hash": "0x771e9b190b2582fd394a4ad16172a9090e25fed9b23bdbe96f3fc2a9a0f296f3",
      "transactionType": "CREATE",
      "contractName": "TestTokenWOKB",
      "contractAddress": "0x81902d53cc0fd247196508af9df596cd387d7321",
      "function": null,
      "arguments": [
        "Genesis OKB Strategy Token",
        "GOKB",
        "1000000000000000000000000"
      ],
      "transaction": {
        "from": "0xd2d120eb7ced38551ccefb48021067d41d6542d3",
        "gas": "0x942c2",
        "value": "0x0",
        "input": "0x608060405234610354576109538038038061001981610358565b9283398101906060818303126103545780516001600160401b038111610354578261004591830161037d565b60208201519092906001600160401b0381116103545760409161006991840161037d565b91015182516001600160401b038111610268575f54600181811c9116801561034a575b602082101461024a57601f81116102e8575b506020601f821160011461028757819293945f9261027c575b50508160011b915f199060031b1c1916175f555b81516001600160401b03811161026857600154600181811c9116801561025e575b602082101461024a57601f81116101e7575b50602092601f821160011461018657928192935f9261017b575b50508160011b915f199060031b1c1916176001555b80600255335f5260036020528060405f20556040519081525f7fddf252ad1be2c89b69c2b068fc378daa952ba7f163c4a11628f55a4df523b3ef60203393a360405161058490816103cf8239f35b015190505f80610118565b601f1982169360015f52805f20915f5b8681106101cf57508360019596106101b7575b505050811b0160015561012d565b01515f1960f88460031b161c191690555f80806101a9565b91926020600181928685015181550194019201610196565b60015f527fb10e2d527612073b26eecdfd717e6a320cf44b4afac2b0732d9fcbe2b7fa0cf6601f830160051c81019160208410610240575b601f0160051c01905b81811061023557506100fe565b5f8155600101610228565b909150819061021f565b634e487b7160e01b5f52602260045260245ffd5b90607f16906100ec565b634e487b7160e01b5f52604160045260245ffd5b015190505f806100b7565b601f198216905f8052805f20915f5b8181106102d0575095836001959697106102b8575b505050811b015f556100cb565b01515f1960f88460031b161c191690555f80806102ab565b9192602060018192868b015181550194019201610296565b5f80527f290decd9548b62a8d60345a988386fc84ba6bc95484008f6362f93160ef3e563601f830160051c81019160208410610340575b601f0160051c01905b818110610335575061009e565b5f8155600101610328565b909150819061031f565b90607f169061008c565b5f80fd5b6040519190601f01601f191682016001600160401b0381118382101761026857604052565b81601f82011215610354578051906001600160401b038211610268576103ac601f8301601f1916602001610358565b928284526020838301011161035457815f9260208093018386015e830101529056fe60806040526004361015610011575f80fd5b5f3560e01c806306fdde031461038d578063095ea7b31461031457806318160ddd146102f757806323b872dd14610273578063313ce5671461025857806370a082311461022057806395d89b4114610102578063a9059cbb146100d05763dd62ed3e1461007c575f80fd5b346100cc5760403660031901126100cc57610095610489565b61009d61049f565b6001600160a01b039182165f908152600460209081526040808320949093168252928352819020549051908152f35b5f80fd5b346100cc5760403660031901126100cc5760206100f86100ee610489565b60243590336104d6565b6040519015158152f35b346100cc575f3660031901126100cc576040515f6001548060011c90600181168015610216575b602083108114610202578285529081156101e65750600114610190575b50819003601f01601f191681019067ffffffffffffffff82118183101761017c5760408290528190610178908261045f565b0390f35b634e487b7160e01b5f52604160045260245ffd5b60015f9081529091507fb10e2d527612073b26eecdfd717e6a320cf44b4afac2b0732d9fcbe2b7fa0cf65b8282106101d057506020915082010182610146565b60018160209254838588010152019101906101bb565b90506020925060ff191682840152151560051b82010182610146565b634e487b7160e01b5f52602260045260245ffd5b91607f1691610129565b346100cc5760203660031901126100cc576001600160a01b03610241610489565b165f526003602052602060405f2054604051908152f35b346100cc575f3660031901126100cc57602060405160128152f35b346100cc5760603660031901126100cc5760206100f8610291610489565b61029961049f565b6001600160a01b0382165f818152600486526040808220338352875290205460443593919084600182016102d0575b5050506104d6565b6102d9916104b5565b5f9182526004875260408083203384528852909120558580846102c8565b346100cc575f3660031901126100cc576020600254604051908152f35b346100cc5760403660031901126100cc5761032d610489565b335f8181526004602090815260408083206001600160a01b03909516808452948252918290206024359081905591519182527f8c5be1e5ebec7d5bd14f71427d1e84f3dd0314c0f7b2291e5b200ac8c7c3b92591a3602060405160018152f35b346100cc575f3660031901126100cc576040515f80548060011c90600181168015610455575b602083108114610202578285529081156101e657506001146104015750819003601f01601f191681019067ffffffffffffffff82118183101761017c5760408290528190610178908261045f565b5f8080529091507f290decd9548b62a8d60345a988386fc84ba6bc95484008f6362f93160ef3e5635b82821061043f57506020915082010182610146565b600181602092548385880101520191019061042a565b91607f16916103b3565b602060409281835280519182918282860152018484015e5f828201840152601f01601f1916010190565b600435906001600160a01b03821682036100cc57565b602435906001600160a01b03821682036100cc57565b919082039182116104c257565b634e487b7160e01b5f52601160045260245ffd5b60018060a01b031690815f52600360205260405f206104f68482546104b5565b90556001600160a01b03165f818152600360205260409020805491938281019283106104c2577fddf252ad1be2c89b69c2b068fc378daa952ba7f163c4a11628f55a4df523b3ef9260209255604051908152a360019056fea2646970667358221220b4744a2f5f457c3f76b17cceb1f7840390ae6e2f9875a045701170cde1eb228c64736f6c634300081a0033000000000000000000000000000000000000000000000000000000000000006000000000000000000000000000000000000000000000000000000000000000a000000000000000000000000000000000000000000000d3c21bcecceda1000000000000000000000000000000000000000000000000000000000000000000001a47656e65736973204f4b4220537472617465677920546f6b656e0000000000000000000000000000000000000000000000000000000000000000000000000004474f4b4200000000000000000000000000000000000000000000000000000000",
        "nonce": "0x7c",
        "chainId": "0xc4"
      },
      "additionalContracts": [],
      "isFixedGasLimit": false
    },
    {
      "hash": "0xc5e340e74778e72e6206b79bf5071ddf341e397b82dedf588021657dc74af640",
      "transactionType": "CALL",
      "contractName": null,
      "contractAddress": "0x360e68faccca8ca495c1b759fd9eee466db9fb32",
      "function": "initialize((address,address,uint24,int24,address),uint160)",
      "arguments": [
        "(0x81902d53cc0fd247196508af9Df596Cd387D7321, 0xe538905cf8410324e03A5A23C1c177a474D59b2b, 8388608, 60, 0x174a2450b342042AAe7398545f04B199248E69c0)",
        "79228162514264337593543950336"
      ],
      "transaction": {
        "from": "0xd2d120eb7ced38551ccefb48021067d41d6542d3",
        "to": "0x360e68faccca8ca495c1b759fd9eee466db9fb32",
        "gas": "0x12b8c",
        "value": "0x0",
        "input": "0x6276cbbe00000000000000000000000081902d53cc0fd247196508af9df596cd387d7321000000000000000000000000e538905cf8410324e03a5a23c1c177a474d59b2b0000000000000000000000000000000000000000000000000000000000800000000000000000000000000000000000000000000000000000000000000000003c000000000000000000000000174a2450b342042aae7398545f04b199248e69c00000000000000000000000000000000000000001000000000000000000000000",
        "nonce": "0x7d",
        "chainId": "0xc4"
      },
      "additionalContracts": [],
      "isFixedGasLimit": false
    },
    {
      "hash": "0x1b4b6da960909f09daf66e0c9775a9d7d16cdf124b9aa7e22dc3488b44f7a858",
      "transactionType": "CREATE",
      "contractName": "WOKBLiquidityHelper",
      "contractAddress": "0xe5b0c83404b8f00de63caf8b258515fffa134a24",
      "function": null,
      "arguments": [
        "0x360E68faCcca8cA495c1B759Fd9EEe466db9FB32"
      ],
      "transaction": {
        "from": "0xd2d120eb7ced38551ccefb48021067d41d6542d3",
        "gas": "0xacba7",
        "value": "0x0",
        "input": "0x60a034608057601f61097538819003918201601f19168301916001600160401b03831184841017608457808492602094604052833981010312608057516001600160a01b03811681036080576080526040516108dc90816100998239608051818181604f0152818160d30152818161046b0152818161064d015261081a0152f35b5f80fd5b634e487b7160e01b5f52604160045260245ffdfe60806040526004361015610011575f80fd5b5f3560e01c806309c93b1e1461034757806391dd7346146100825763dc4c90d31461003a575f80fd5b3461007e575f36600319011261007e576040517f00000000000000000000000000000000000000000000000000000000000000006001600160a01b03168152602090f35b5f80fd5b3461007e57602036600319011261007e5760043567ffffffffffffffff811161007e573660238201121561007e57806004013567ffffffffffffffff811161007e5781019036602483011161007e577f00000000000000000000000000000000000000000000000000000000000000006001600160a01b03169133839003610318576101208282031261007e5760a0908290031261007e576040519161012783610539565b61013360248301610577565b835261014160448301610577565b9260208101938452606483013562ffffff8116810361007e57604082015261016b6084840161058b565b606082015260a48301356001600160a01b038116810361007e57608082015261019660c4840161058b565b916101a360e4850161058b565b6101248501356001600160a01b038116949085900361007e576040516080810181811067ffffffffffffffff82111761030457604094610164935f92875260020b8352602083019460020b85526101048684019901358952606083018281528651998a968795632d35e7ed60e11b8752610220600488018c6105c3565b5160020b60a48701525160020b60c48601525160e485015251610104840152610140610124840152816101448401525af19283156102f9575f936102c1575b50516102bd936102999291610284908390608087901d906001600160a01b0316610622565b51600f84900b906001600160a01b0316610622565b604051906020820152602081526102b1604082610555565b60405191829182610599565b0390f35b919092506040823d6040116102f1575b816102de60409383610555565b8101031261007e579051916102bd61025f565b3d91506102d1565b6040513d5f823e3d90fd5b634e487b7160e01b5f52604160045260245ffd5b60405162461bcd60e51b81526020600482015260076024820152666f6e6c7920504d60c81b6044820152606490fd5b3461007e573660031901610120811261007e5760a01361007e5760405161036d81610539565b6004356001600160a01b038116810361007e5781526024356001600160a01b038116810361007e57602082015260443562ffffff8116810361007e5760408201526064358060020b810361007e5760608201526084356001600160a01b038116810361007e57608082015260a4358060020b80910361007e5760c435918260020b80930361007e57610104356001600160a01b0381169081900361007e57610466935f936104226040519460208601906105c3565b60c084015260e083015260e435610100830152610120820152610120815261044c61014082610555565b604051809381926348c8949160e01b835260048301610599565b0381837f00000000000000000000000000000000000000000000000000000000000000006001600160a01b03165af19081156102f9575f916104bf575b5060208180518101031261007e57602080910151604051908152f35b90503d805f833e6104d08183610555565b81019060208183031261007e5780519067ffffffffffffffff821161007e570181601f8201121561007e5780519061050782610606565b926105156040519485610555565b8284526020838301011161007e57815f9260208093018386015e83010152816104a3565b60a0810190811067ffffffffffffffff82111761030457604052565b90601f8019910116810190811067ffffffffffffffff82111761030457604052565b35906001600160a01b038216820361007e57565b35908160020b820361007e57565b602060409281835280519182918282860152018484015e5f828201840152601f01601f1916010190565b80516001600160a01b03908116835260208083015182169084015260408083015162ffffff169084015260608083015160020b9084015260809182015116910152565b67ffffffffffffffff811161030457601f01601f191660200190565b5f9282600f0b925f84125f1461080957506f7fffffffffffffffffffffffffffffff1983146107f5577f00000000000000000000000000000000000000000000000000000000000000006001600160a01b031692833b156107e657604051632961046560e21b81526001600160a01b039093166004840181905292858160248183895af180156107ea5790869392916107cb575b5090828094926001600160801b036040519160208301946323b872dd60e01b865260018060a01b03166024840152886044840152830316606482015260648152610701608482610555565b51925af13d156107c6573d61071581610606565b906107236040519283610555565b81528360203d92013e5b1561078f5760208291600460405180948193630476982d60e21b83525af1801561078457610759575050565b602090813d831161077d575b61076f8183610555565b8101031261077a5750565b80fd5b503d610765565b6040513d84823e3d90fd5b60405162461bcd60e51b815260206004820152600f60248201526e1d1c985b9cd9995c8819985a5b1959608a1b6044820152606490fd5b61072d565b836107d99194929394610555565b6107e6579084915f6106b6565b8480fd5b6040513d88823e3d90fd5b634e487b7160e01b84526011600452602484fd5b935090915f1261081857505050565b7f00000000000000000000000000000000000000000000000000000000000000006001600160a01b0316803b1561007e57604051630b0d9c0960e01b81526001600160a01b0393841660048201529190921660248201526001600160801b039290921660448301525f908290606490829084905af180156102f95761089a5750565b5f6108a491610555565b56fea2646970667358221220edcafe6aceadd991678da8573b934e1d83e29a9c94569cde443ff0d743dcbaa264736f6c634300081a0033000000000000000000000000360e68faccca8ca495c1b759fd9eee466db9fb32",
        "nonce": "0x7e",
        "chainId": "0xc4"
      },
      "additionalContracts": [],
      "isFixedGasLimit": false
    },
    {
      "hash": "0x561efe7e03d9b8d2daa610821083c46bf423a292d806772029dcad0b6bc60cd8",
      "transactionType": "CREATE",
      "contractName": "WOKBSwapRouter",
      "contractAddress": "0x8f34a069f09412833050f088555151cc7e26b93a",
      "function": null,
      "arguments": [
        "0x360E68faCcca8cA495c1B759Fd9EEe466db9FB32"
      ],
      "transaction": {
        "from": "0xd2d120eb7ced38551ccefb48021067d41d6542d3",
        "gas": "0xb1735",
        "value": "0x0",
        "input": "0x60a034608057601f6109ba38819003918201601f19168301916001600160401b03831184841017608457808492602094604052833981010312608057516001600160a01b038116810360805760805260405161092190816100998239608051818181604f0152818160d30152818161048901528181610692015261085f0152f35b5f80fd5b634e487b7160e01b5f52604160045260245ffdfe60806040526004361015610011575f80fd5b5f3560e01c80631e2817de1461033857806391dd7346146100825763dc4c90d31461003a575f80fd5b3461007e575f36600319011261007e576040517f00000000000000000000000000000000000000000000000000000000000000006001600160a01b03168152602090f35b5f80fd5b3461007e57602036600319011261007e5760043567ffffffffffffffff811161007e573660238201121561007e57806004013567ffffffffffffffff811161007e5781019036602483011161007e577f00000000000000000000000000000000000000000000000000000000000000006001600160a01b03169033829003610309576101208184031261007e5760a08184031261007e576040516101258161055c565b610131602483016105ca565b815261013f604483016105ca565b9360208201948552606483013562ffffff8116810361007e57604083015260848301358060020b810361007e57606083015260a48301356001600160a01b038116810361007e576080830152606090839003609f19011261007e57604051916101a78361058c565b60c4810135801515810361007e57835260e48101356020840152610104810135906001600160a01b038216820361007e5761012491604085015201359160018060a01b03831680930361007e576102446101446020925f6040519788948593633cf3645360e21b855261021d600486018a610608565b8051151560a4860152602081015160c4860152604001516001600160a01b031660e4850152565b610120610104840152816101248401525af19283156102fe575f936102c6575b50516102c29361029e9291610289908390608087901d906001600160a01b0316610667565b51600f84900b906001600160a01b0316610667565b604051906020820152602081526102b66040826105a8565b604051918291826105de565b0390f35b919092506020823d6020116102f6575b816102e3602093836105a8565b8101031261007e579051916102c2610264565b3d91506102d6565b6040513d5f823e3d90fd5b60405162461bcd60e51b81526020600482015260076024820152666f6e6c7920504d60c81b6044820152606490fd5b3461007e573660031901610100811261007e5760a01361007e5760405161035e8161055c565b6004356001600160a01b038116810361007e5781526024356001600160a01b038116810361007e57602082015260443562ffffff8116810361007e5760408201526064358060020b810361007e5760608201526084356001600160a01b038116810361007e57608082015260603660a319011261007e576040516103e18161058c565b60a435801515810361007e57815260c435602082015260e435916001600160a01b038316830361007e57610452826104849460405f95015261042a604051936020850190610608565b8051151560c0840152602081015160e0840152604001516001600160a01b0316610100830152565b33610120820152610120815261046a610140826105a8565b604051809381926348c8949160e01b8352600483016105de565b0381837f00000000000000000000000000000000000000000000000000000000000000006001600160a01b03165af19081156102fe575f916104e2575b506020815191818082019384920101031261007e5760209051604051908152f35b90503d805f833e6104f381836105a8565b81019060208183031261007e5780519067ffffffffffffffff821161007e570181601f8201121561007e5780519061052a8261064b565b9261053860405194856105a8565b8284526020838301011161007e57815f9260208093018386015e83010152816104c1565b60a0810190811067ffffffffffffffff82111761057857604052565b634e487b7160e01b5f52604160045260245ffd5b6060810190811067ffffffffffffffff82111761057857604052565b90601f8019910116810190811067ffffffffffffffff82111761057857604052565b35906001600160a01b038216820361007e57565b602060409281835280519182918282860152018484015e5f828201840152601f01601f1916010190565b80516001600160a01b03908116835260208083015182169084015260408083015162ffffff169084015260608083015160020b9084015260809182015116910152565b67ffffffffffffffff811161057857601f01601f191660200190565b5f9282600f0b925f84125f1461084e57506f7fffffffffffffffffffffffffffffff19831461083a577f00000000000000000000000000000000000000000000000000000000000000006001600160a01b031692833b1561082b57604051632961046560e21b81526001600160a01b039093166004840181905292858160248183895af1801561082f579086939291610810575b5090828094926001600160801b036040519160208301946323b872dd60e01b865260018060a01b031660248401528860448401528303166064820152606481526107466084826105a8565b51925af13d1561080b573d61075a8161064b565b9061076860405192836105a8565b81528360203d92013e5b156107d45760208291600460405180948193630476982d60e21b83525af180156107c95761079e575050565b602090813d83116107c2575b6107b481836105a8565b810103126107bf5750565b80fd5b503d6107aa565b6040513d84823e3d90fd5b60405162461bcd60e51b815260206004820152600f60248201526e1d1c985b9cd9995c8819985a5b1959608a1b6044820152606490fd5b610772565b8361081e91949293946105a8565b61082b579084915f6106fb565b8480fd5b6040513d88823e3d90fd5b634e487b7160e01b84526011600452602484fd5b935090915f1261085d57505050565b7f00000000000000000000000000000000000000000000000000000000000000006001600160a01b0316803b1561007e57604051630b0d9c0960e01b81526001600160a01b0393841660048201529190921660248201526001600160801b039290921660448301525f908290606490829084905af180156102fe576108df5750565b5f6108e9916105a8565b56fea26469706673582212208037cfc5626bd782e9e3bb47f55aca062dd433bd6d52029f241810841743e8f964736f6c634300081a0033000000000000000000000000360e68faccca8ca495c1b759fd9eee466db9fb32",
        "nonce": "0x7f",
        "chainId": "0xc4"
      },
      "additionalContracts": [],
      "isFixedGasLimit": false
    },
    {
      "hash": "0x11a4682581605858388b2513b8d283bcd993254b17d0eb068f6cb921498a7826",
      "transactionType": "CALL",
      "contractName": null,
      "contractAddress": "0xe538905cf8410324e03a5a23c1c177a474d59b2b",
      "function": "approve(address,uint256)",
      "arguments": [
        "0xe5b0C83404B8F00DE63Caf8B258515fFfa134A24",
        "115792089237316195423570985008687907853269984665640564039457584007913129639935"
      ],
      "transaction": {
        "from": "0xd2d120eb7ced38551ccefb48021067d41d6542d3",
        "to": "0xe538905cf8410324e03a5a23c1c177a474d59b2b",
        "gas": "0xfa54",
        "value": "0x0",
        "input": "0x095ea7b3000000000000000000000000e5b0c83404b8f00de63caf8b258515fffa134a24ffffffffffffffffffffffffffffffffffffffffffffffffffffffffffffffff",
        "nonce": "0x80",
        "chainId": "0xc4"
      },
      "additionalContracts": [],
      "isFixedGasLimit": false
    },
    {
      "hash": "0xfce99e77a4cd4e5b5ea82664d3c32e484105bf22d29307dd50fb145e0897c705",
      "transactionType": "CALL",
      "contractName": "TestTokenWOKB",
      "contractAddress": "0x81902d53cc0fd247196508af9df596cd387d7321",
      "function": "approve(address,uint256)",
      "arguments": [
        "0xe5b0C83404B8F00DE63Caf8B258515fFfa134A24",
        "115792089237316195423570985008687907853269984665640564039457584007913129639935"
      ],
      "transaction": {
        "from": "0xd2d120eb7ced38551ccefb48021067d41d6542d3",
        "to": "0x81902d53cc0fd247196508af9df596cd387d7321",
        "gas": "0x10837",
        "value": "0x0",
        "input": "0x095ea7b3000000000000000000000000e5b0c83404b8f00de63caf8b258515fffa134a24ffffffffffffffffffffffffffffffffffffffffffffffffffffffffffffffff",
        "nonce": "0x81",
        "chainId": "0xc4"
      },
      "additionalContracts": [],
      "isFixedGasLimit": false
    },
    {
      "hash": "0xd9b513cec4fa0ed1c86b782235b50bc15aa0536bbb13f6b0182dea3bbc3373d1",
      "transactionType": "CALL",
      "contractName": null,
      "contractAddress": "0xe538905cf8410324e03a5a23c1c177a474d59b2b",
      "function": "approve(address,uint256)",
      "arguments": [
        "0x8f34A069f09412833050F088555151Cc7E26b93a",
        "115792089237316195423570985008687907853269984665640564039457584007913129639935"
      ],
      "transaction": {
        "from": "0xd2d120eb7ced38551ccefb48021067d41d6542d3",
        "to": "0xe538905cf8410324e03a5a23c1c177a474d59b2b",
        "gas": "0xfa54",
        "value": "0x0",
        "input": "0x095ea7b30000000000000000000000008f34a069f09412833050f088555151cc7e26b93affffffffffffffffffffffffffffffffffffffffffffffffffffffffffffffff",
        "nonce": "0x82",
        "chainId": "0xc4"
      },
      "additionalContracts": [],
      "isFixedGasLimit": false
    },
    {
      "hash": "0x0639813141308eb77007acbd6b5643303caf52ba03f0b11c61725f74a0dbe087",
      "transactionType": "CALL",
      "contractName": "TestTokenWOKB",
      "contractAddress": "0x81902d53cc0fd247196508af9df596cd387d7321",
      "function": "approve(address,uint256)",
      "arguments": [
        "0x8f34A069f09412833050F088555151Cc7E26b93a",
        "115792089237316195423570985008687907853269984665640564039457584007913129639935"
      ],
      "transaction": {
        "from": "0xd2d120eb7ced38551ccefb48021067d41d6542d3",
        "to": "0x81902d53cc0fd247196508af9df596cd387d7321",
        "gas": "0x10837",
        "value": "0x0",
        "input": "0x095ea7b30000000000000000000000008f34a069f09412833050f088555151cc7e26b93affffffffffffffffffffffffffffffffffffffffffffffffffffffffffffffff",
        "nonce": "0x83",
        "chainId": "0xc4"
      },
      "additionalContracts": [],
      "isFixedGasLimit": false
    },
    {
      "hash": "0x27a17ff8833af77f2f3538babcbb8255af690a43986f499ac16976827f86d0fc",
      "transactionType": "CALL",
      "contractName": "WOKBLiquidityHelper",
      "contractAddress": "0xe5b0c83404b8f00de63caf8b258515fffa134a24",
      "function": "addLiquidity((address,address,uint24,int24,address),int24,int24,int256,address)",
      "arguments": [
        "(0x81902d53cc0fd247196508af9Df596Cd387D7321, 0xe538905cf8410324e03A5A23C1c177a474D59b2b, 8388608, 60, 0x174a2450b342042AAe7398545f04B199248E69c0)",
        "-6000",
        "6000",
        "1000000000000000",
        "0xd2D120eB7cEd38551cCeFb48021067d41D6542d3"
      ],
      "transaction": {
        "from": "0xd2d120eb7ced38551ccefb48021067d41d6542d3",
        "to": "0xe5b0c83404b8f00de63caf8b258515fffa134a24",
        "gas": "0x5f153",
        "value": "0x0",
        "input": "0x09c93b1e00000000000000000000000081902d53cc0fd247196508af9df596cd387d7321000000000000000000000000e538905cf8410324e03a5a23c1c177a474d59b2b0000000000000000000000000000000000000000000000000000000000800000000000000000000000000000000000000000000000000000000000000000003c000000000000000000000000174a2450b342042aae7398545f04b199248e69c0ffffffffffffffffffffffffffffffffffffffffffffffffffffffffffffe890000000000000000000000000000000000000000000000000000000000000177000000000000000000000000000000000000000000000000000038d7ea4c68000000000000000000000000000d2d120eb7ced38551ccefb48021067d41d6542d3",
        "nonce": "0x84",
        "chainId": "0xc4"
      },
      "additionalContracts": [],
      "isFixedGasLimit": false
    },
    {
      "hash": "0x18e21c7600f0ac98a636aaacccabc0a24e77e476e03e1346c33a38ccb8c5f6d0",
      "transactionType": "CALL",
      "contractName": "WOKBSwapRouter",
      "contractAddress": "0x8f34a069f09412833050f088555151cc7e26b93a",
      "function": "swap((address,address,uint24,int24,address),(bool,int256,uint160))",
      "arguments": [
        "(0x81902d53cc0fd247196508af9Df596Cd387D7321, 0xe538905cf8410324e03A5A23C1c177a474D59b2b, 8388608, 60, 0x174a2450b342042AAe7398545f04B199248E69c0)",
        "(true, -10000000000000, 4295128740)"
      ],
      "transaction": {
        "from": "0xd2d120eb7ced38551ccefb48021067d41d6542d3",
        "to": "0x8f34a069f09412833050f088555151cc7e26b93a",
        "gas": "0x486ee",
        "value": "0x0",
        "input": "0x1e2817de00000000000000000000000081902d53cc0fd247196508af9df596cd387d7321000000000000000000000000e538905cf8410324e03a5a23c1c177a474d59b2b0000000000000000000000000000000000000000000000000000000000800000000000000000000000000000000000000000000000000000000000000000003c000000000000000000000000174a2450b342042aae7398545f04b199248e69c00000000000000000000000000000000000000000000000000000000000000001fffffffffffffffffffffffffffffffffffffffffffffffffffff6e7b18d600000000000000000000000000000000000000000000000000000000001000276a4",
        "nonce": "0x85",
        "chainId": "0xc4"
      },
      "additionalContracts": [],
      "isFixedGasLimit": false
    },
    {
      "hash": "0xc044db8f88c390545b8f24d8de4239560b7addfd43b8a4c311c98d56612f0bc9",
      "transactionType": "CALL",
      "contractName": "WOKBSwapRouter",
      "contractAddress": "0x8f34a069f09412833050f088555151cc7e26b93a",
      "function": "swap((address,address,uint24,int24,address),(bool,int256,uint160))",
      "arguments": [
        "(0x81902d53cc0fd247196508af9Df596Cd387D7321, 0xe538905cf8410324e03A5A23C1c177a474D59b2b, 8388608, 60, 0x174a2450b342042AAe7398545f04B199248E69c0)",
        "(false, -5000000000000, 1461446703485210103287273052203988822378723970341)"
      ],
      "transaction": {
        "from": "0xd2d120eb7ced38551ccefb48021067d41d6542d3",
        "to": "0x8f34a069f09412833050f088555151cc7e26b93a",
        "gas": "0x4abca",
        "value": "0x0",
        "input": "0x1e2817de00000000000000000000000081902d53cc0fd247196508af9df596cd387d7321000000000000000000000000e538905cf8410324e03a5a23c1c177a474d59b2b0000000000000000000000000000000000000000000000000000000000800000000000000000000000000000000000000000000000000000000000000000003c000000000000000000000000174a2450b342042aae7398545f04b199248e69c00000000000000000000000000000000000000000000000000000000000000000fffffffffffffffffffffffffffffffffffffffffffffffffffffb73d8c6b000000000000000000000000000fffd8963efd1fc6a506488495d951d5263988d25",
        "nonce": "0x86",
        "chainId": "0xc4"
      },
      "additionalContracts": [],
      "isFixedGasLimit": false
    },
    {
      "hash": "0x1d0d23f6eddd65300310d147cf44d48a11811a04affc42e8ad35527162bb2a12",
      "transactionType": "CALL",
      "contractName": "WOKBSwapRouter",
      "contractAddress": "0x8f34a069f09412833050f088555151cc7e26b93a",
      "function": "swap((address,address,uint24,int24,address),(bool,int256,uint160))",
      "arguments": [
        "(0x81902d53cc0fd247196508af9Df596Cd387D7321, 0xe538905cf8410324e03A5A23C1c177a474D59b2b, 8388608, 60, 0x174a2450b342042AAe7398545f04B199248E69c0)",
        "(true, -20000000000000, 4295128740)"
      ],
      "transaction": {
        "from": "0xd2d120eb7ced38551ccefb48021067d41d6542d3",
        "to": "0x8f34a069f09412833050f088555151cc7e26b93a",
        "gas": "0x40efd",
        "value": "0x0",
        "input": "0x1e2817de00000000000000000000000081902d53cc0fd247196508af9df596cd387d7321000000000000000000000000e538905cf8410324e03a5a23c1c177a474d59b2b0000000000000000000000000000000000000000000000000000000000800000000000000000000000000000000000000000000000000000000000000000003c000000000000000000000000174a2450b342042aae7398545f04b199248e69c00000000000000000000000000000000000000000000000000000000000000001ffffffffffffffffffffffffffffffffffffffffffffffffffffedcf631ac00000000000000000000000000000000000000000000000000000000001000276a4",
        "nonce": "0x87",
        "chainId": "0xc4"
      },
      "additionalContracts": [],
      "isFixedGasLimit": false
    }
  ],
  "receipts": [
    {
      "status": "0x1",
      "cumulativeGasUsed": "0x3c9c9",
      "logs": [
        {
          "address": "0xe538905cf8410324e03a5a23c1c177a474d59b2b",
          "topics": [
            "0xe1fffcc4923d04b559f4d29a8bfc6cda04eb5b0d3c460751c2402c5c5cc9109c",
            "0x000000000000000000000000d2d120eb7ced38551ccefb48021067d41d6542d3"
          ],
          "data": "0x000000000000000000000000000000000000000000000000002386f26fc10000",
          "blockHash": "0x6d8055cbf0db0ce5972f146e45387c8e7e759deee654fbf3d28379192d6702db",
          "blockNumber": "0x35e76cf",
          "blockTimestamp": "0x69d0cc5b",
          "transactionHash": "0x771e9b190b2582fd394a4ad16172a9090e25fed9b23bdbe96f3fc2a9a0f296f3",
          "transactionIndex": "0x2",
          "logIndex": "0x2",
          "removed": false
        },
        {
          "address": "0xe538905cf8410324e03a5a23c1c177a474d59b2b",
          "topics": [
            "0xddf252ad1be2c89b69c2b068fc378daa952ba7f163c4a11628f55a4df523b3ef",
            "0x0000000000000000000000000000000000000000000000000000000000000000",
            "0x000000000000000000000000d2d120eb7ced38551ccefb48021067d41d6542d3"
          ],
          "data": "0x000000000000000000000000000000000000000000000000002386f26fc10000",
          "blockHash": "0x6d8055cbf0db0ce5972f146e45387c8e7e759deee654fbf3d28379192d6702db",
          "blockNumber": "0x35e76cf",
          "blockTimestamp": "0x69d0cc5b",
          "transactionHash": "0x771e9b190b2582fd394a4ad16172a9090e25fed9b23bdbe96f3fc2a9a0f296f3",
          "transactionIndex": "0x2",
          "logIndex": "0x3",
          "removed": false
        }
      ],
      "logsBloom": "0x00000000000000000000000000000000000000000000000000000000000000200000000000000000000000000400000000000000000000000000000000000000000000000000000000000008000000000000000000000000000000008000000000000000020000000000000000000800000000000000000000000010000000000000000000000000000000000000000000000001000000000000000000000000000000000000000000000000000000000010000000000000010000000000000000000002000000000000000000000000000100000000000000000000000020004000000000000000000000000000000000000000000000400000000000000000",
      "type": "0x2",
      "transactionHash": "0x771e9b190b2582fd394a4ad16172a9090e25fed9b23bdbe96f3fc2a9a0f296f3",
      "transactionIndex": "0x2",
      "blockHash": "0x6d8055cbf0db0ce5972f146e45387c8e7e759deee654fbf3d28379192d6702db",
      "blockNumber": "0x35e76cf",
      "gasUsed": "0xbf9e",
      "effectiveGasPrice": "0x1312d01",
      "blobGasUsed": "0x9c40",
      "from": "0xd2d120eb7ced38551ccefb48021067d41d6542d3",
      "to": "0xe538905cf8410324e03a5a23c1c177a474d59b2b",
      "contractAddress": null,
      "daFootprintGasScalar": "0x190",
      "l1BaseFeeScalar": "0x0",
      "l1BlobBaseFee": "0x5bcf26",
      "l1BlobBaseFeeScalar": "0x0",
      "l1Fee": "0x0",
      "l1GasPrice": "0x6a483ba",
      "l1GasUsed": "0x640"
    },
    {
      "status": "0x1",
      "cumulativeGasUsed": "0xae972",
      "logs": [
        {
          "address": "0x81902d53cc0fd247196508af9df596cd387d7321",
          "topics": [
            "0xddf252ad1be2c89b69c2b068fc378daa952ba7f163c4a11628f55a4df523b3ef",
            "0x0000000000000000000000000000000000000000000000000000000000000000",
            "0x000000000000000000000000d2d120eb7ced38551ccefb48021067d41d6542d3"
          ],
          "data": "0x00000000000000000000000000000000000000000000d3c21bcecceda1000000",
          "blockHash": "0x6d8055cbf0db0ce5972f146e45387c8e7e759deee654fbf3d28379192d6702db",
          "blockNumber": "0x35e76cf",
          "blockTimestamp": "0x69d0cc5b",
          "transactionHash": "0xc5e340e74778e72e6206b79bf5071ddf341e397b82dedf588021657dc74af640",
          "transactionIndex": "0x3",
          "logIndex": "0x4",
          "removed": false
        }
      ],
      "logsBloom": "0x00000000000800000000000000000000000000000000000000000000000000000000000000000000000000000000000000000000000000000000000000000000000000000000000000000008000000000000000000000000000000000000000000000000020000000000000000000800000000000000000000000010000000000000000000000000000000000000400000000000000000000000000000000000000000000000040000000000000000000010000000000000000000000000000000000002000000000000000000000000000100000000000000000000000020004000000000000000000000000000000000000000000000000000000000000000",
      "type": "0x2",
      "transactionHash": "0xc5e340e74778e72e6206b79bf5071ddf341e397b82dedf588021657dc74af640",
      "transactionIndex": "0x3",
      "blockHash": "0x6d8055cbf0db0ce5972f146e45387c8e7e759deee654fbf3d28379192d6702db",
      "blockNumber": "0x35e76cf",
      "gasUsed": "0x71fa9",
      "effectiveGasPrice": "0x1312d01",
      "blobGasUsed": "0x95510",
      "from": "0xd2d120eb7ced38551ccefb48021067d41d6542d3",
      "to": null,
      "contractAddress": "0x81902d53cc0fd247196508af9df596cd387d7321",
      "daFootprintGasScalar": "0x190",
      "l1BaseFeeScalar": "0x0",
      "l1BlobBaseFee": "0x5bcf26",
      "l1BlobBaseFeeScalar": "0x0",
      "l1Fee": "0x0",
      "l1GasPrice": "0x6a483ba",
      "l1GasUsed": "0x5f93"
    },
    {
      "status": "0x1",
      "cumulativeGasUsed": "0xbc251",
      "logs": [
        {
          "address": "0x360e68faccca8ca495c1b759fd9eee466db9fb32",
          "topics": [
            "0xdd466e674ea557f56295e2d0218a125ea4b4f0f6f3307b95f85e6110838d6438",
            "0x2c3cd4c726c2922a4fc4253321a9a54bf02c70fb1840f05d51411337e4793c08",
            "0x00000000000000000000000081902d53cc0fd247196508af9df596cd387d7321",
            "0x000000000000000000000000e538905cf8410324e03a5a23c1c177a474d59b2b"
          ],
          "data": "0x0000000000000000000000000000000000000000000000000000000000800000000000000000000000000000000000000000000000000000000000000000003c000000000000000000000000174a2450b342042aae7398545f04b199248e69c000000000000000000000000000000000000000010000000000000000000000000000000000000000000000000000000000000000000000000000000000000000",
          "blockHash": "0x6d8055cbf0db0ce5972f146e45387c8e7e759deee654fbf3d28379192d6702db",
          "blockNumber": "0x35e76cf",
          "blockTimestamp": "0x69d0cc5b",
          "transactionHash": "0x8b4ba0b0f5ddcb8c451af5b3ba8813b63e04f58302f632fc916620617c0c906e",
          "transactionIndex": "0x4",
          "logIndex": "0x5",
          "removed": false
        }
      ],
      "logsBloom": "0x00000000000000200000000000000000000000000000000000000000000004000000000000000000000000000000000000000000000000000000000000000000000000000000000001000000000000000000000000000000000000000000000000010400000000000000000000000000000000000000000000000000000000000000000001000008000000000000000000000001000800000000000200200000000000000000000000000000000004000000000000000000000000000000000000000000000000000000000000000000000004000000000000000000000000000000000000000000000000000000000000004000000000000000000000000008",
      "type": "0x2",
      "transactionHash": "0x8b4ba0b0f5ddcb8c451af5b3ba8813b63e04f58302f632fc916620617c0c906e",
      "transactionIndex": "0x4",
      "blockHash": "0x6d8055cbf0db0ce5972f146e45387c8e7e759deee654fbf3d28379192d6702db",
      "blockNumber": "0x35e76cf",
      "gasUsed": "0xd8df",
      "effectiveGasPrice": "0x1312d01",
      "blobGasUsed": "0xd7a0",
      "from": "0xd2d120eb7ced38551ccefb48021067d41d6542d3",
      "to": "0x360e68faccca8ca495c1b759fd9eee466db9fb32",
      "contractAddress": null,
      "daFootprintGasScalar": "0x190",
      "l1BaseFeeScalar": "0x0",
      "l1BlobBaseFee": "0x5bcf26",
      "l1BlobBaseFeeScalar": "0x0",
      "l1Fee": "0x0",
      "l1GasPrice": "0x6a483ba",
      "l1GasUsed": "0x8ae"
    },
    {
      "status": "0x1",
      "cumulativeGasUsed": "0x141034",
      "logs": [],
      "logsBloom": "0x00000000000000000000000000000000000000000000000000000000000000000000000000000000000000000000000000000000000000000000000000000000000000000000000000000000000000000000000000000000000000000000000000000000000000000000000000000000000000000000000000000000000000000000000000000000000000000000000000000000000000000000000000000000000000000000000000000000000000000000000000000000000000000000000000000000000000000000000000000000000000000000000000000000000000000000000000000000000000000000000000000000000000000000000000000000",
      "type": "0x2",
      "transactionHash": "0xd9b513cec4fa0ed1c86b782235b50bc15aa0536bbb13f6b0182dea3bbc3373d1",
      "transactionIndex": "0x5",
      "blockHash": "0x6d8055cbf0db0ce5972f146e45387c8e7e759deee654fbf3d28379192d6702db",
      "blockNumber": "0x35e76cf",
      "gasUsed": "0x84de3",
      "effectiveGasPrice": "0x1312d01",
      "blobGasUsed": "0x94ed0",
      "from": "0xd2d120eb7ced38551ccefb48021067d41d6542d3",
      "to": null,
      "contractAddress": "0xe5b0c83404b8f00de63caf8b258515fffa134a24",
      "daFootprintGasScalar": "0x190",
      "l1BaseFeeScalar": "0x0",
      "l1BlobBaseFee": "0x5bcf26",
      "l1BlobBaseFeeScalar": "0x0",
      "l1Fee": "0x0",
      "l1GasPrice": "0x6a483ba",
      "l1GasUsed": "0x5f50"
    },
    {
      "status": "0x1",
      "cumulativeGasUsed": "0x1c9836",
      "logs": [],
      "logsBloom": "0x00000000000000000000000000000000000000000000000000000000000000000000000000000000000000000000000000000000000000000000000000000000000000000000000000000000000000000000000000000000000000000000000000000000000000000000000000000000000000000000000000000000000000000000000000000000000000000000000000000000000000000000000000000000000000000000000000000000000000000000000000000000000000000000000000000000000000000000000000000000000000000000000000000000000000000000000000000000000000000000000000000000000000000000000000000000",
      "type": "0x2",
      "transactionHash": "0x561efe7e03d9b8d2daa610821083c46bf423a292d806772029dcad0b6bc60cd8",
      "transactionIndex": "0x6",
      "blockHash": "0x6d8055cbf0db0ce5972f146e45387c8e7e759deee654fbf3d28379192d6702db",
      "blockNumber": "0x35e76cf",
      "gasUsed": "0x88802",
      "effectiveGasPrice": "0x1312d01",
      "blobGasUsed": "0x96000",
      "from": "0xd2d120eb7ced38551ccefb48021067d41d6542d3",
      "to": null,
      "contractAddress": "0x8f34a069f09412833050f088555151cc7e26b93a",
      "daFootprintGasScalar": "0x190",
      "l1BaseFeeScalar": "0x0",
      "l1BlobBaseFee": "0x5bcf26",
      "l1BlobBaseFeeScalar": "0x0",
      "l1Fee": "0x0",
      "l1GasPrice": "0x6a483ba",
      "l1GasUsed": "0x600b"
    },
    {
      "status": "0x1",
      "cumulativeGasUsed": "0x1d4d73",
      "logs": [
        {
          "address": "0xe538905cf8410324e03a5a23c1c177a474d59b2b",
          "topics": [
            "0x8c5be1e5ebec7d5bd14f71427d1e84f3dd0314c0f7b2291e5b200ac8c7c3b925",
            "0x000000000000000000000000d2d120eb7ced38551ccefb48021067d41d6542d3",
            "0x000000000000000000000000e5b0c83404b8f00de63caf8b258515fffa134a24"
          ],
          "data": "0xffffffffffffffffffffffffffffffffffffffffffffffffffffffffffffffff",
          "blockHash": "0x6d8055cbf0db0ce5972f146e45387c8e7e759deee654fbf3d28379192d6702db",
          "blockNumber": "0x35e76cf",
          "blockTimestamp": "0x69d0cc5b",
          "transactionHash": "0x18e21c7600f0ac98a636aaacccabc0a24e77e476e03e1346c33a38ccb8c5f6d0",
          "transactionIndex": "0x7",
          "logIndex": "0x6",
          "removed": false
        }
      ],
      "logsBloom": "0x00000000000000000000000000000000000000000000000000000000000000200000000000000000000000000400000000000000000000000000000000200000000000000000000000000000000000000000000000000000000000000000000000000000000000000000000000000000000000000000000000000000000000000000000000000000000000000000000000000000000000000000000000000000020000000000000000000000000000000010000000000000010000000000000000000000000000000000000000000000000100000000000041000000000000004010000000000000000001000000000000000000000000000000000000000000",
      "type": "0x2",
      "transactionHash": "0x18e21c7600f0ac98a636aaacccabc0a24e77e476e03e1346c33a38ccb8c5f6d0",
      "transactionIndex": "0x7",
      "blockHash": "0x6d8055cbf0db0ce5972f146e45387c8e7e759deee654fbf3d28379192d6702db",
      "blockNumber": "0x35e76cf",
      "gasUsed": "0xb53d",
      "effectiveGasPrice": "0x1312d01",
      "blobGasUsed": "0x9c40",
      "from": "0xd2d120eb7ced38551ccefb48021067d41d6542d3",
      "to": "0xe538905cf8410324e03a5a23c1c177a474d59b2b",
      "contractAddress": null,
      "daFootprintGasScalar": "0x190",
      "l1BaseFeeScalar": "0x0",
      "l1BlobBaseFee": "0x5bcf26",
      "l1BlobBaseFeeScalar": "0x0",
      "l1Fee": "0x0",
      "l1GasPrice": "0x6a483ba",
      "l1GasUsed": "0x640"
    },
    {
      "status": "0x1",
      "cumulativeGasUsed": "0x1e021c",
      "logs": [
        {
          "address": "0x81902d53cc0fd247196508af9df596cd387d7321",
          "topics": [
            "0x8c5be1e5ebec7d5bd14f71427d1e84f3dd0314c0f7b2291e5b200ac8c7c3b925",
            "0x000000000000000000000000d2d120eb7ced38551ccefb48021067d41d6542d3",
            "0x000000000000000000000000e5b0c83404b8f00de63caf8b258515fffa134a24"
          ],
          "data": "0xffffffffffffffffffffffffffffffffffffffffffffffffffffffffffffffff",
          "blockHash": "0x6d8055cbf0db0ce5972f146e45387c8e7e759deee654fbf3d28379192d6702db",
          "blockNumber": "0x35e76cf",
          "blockTimestamp": "0x69d0cc5b",
          "transactionHash": "0x1b4b6da960909f09daf66e0c9775a9d7d16cdf124b9aa7e22dc3488b44f7a858",
          "transactionIndex": "0x8",
          "logIndex": "0x7",
          "removed": false
        }
      ],
      "logsBloom": "0x00000000000800000000000000000000000000000000000000000000000000000000000000000000000000000000000000000000000000000000000000200000000000000000000000000000000000000000000000000000000000000000000000000000000000000000000000000000000000000000000000000000000000000000000000000000000000000000400000000000000000000000000000000000020000000000040000000000000000000010000000000000000000000000000000000000000000000000000000000000000100000000000041000000000000004010000000000000000001000000000000000000000000000000000000000000",
      "type": "0x2",
      "transactionHash": "0x1b4b6da960909f09daf66e0c9775a9d7d16cdf124b9aa7e22dc3488b44f7a858",
      "transactionIndex": "0x8",
      "blockHash": "0x6d8055cbf0db0ce5972f146e45387c8e7e759deee654fbf3d28379192d6702db",
      "blockNumber": "0x35e76cf",
      "gasUsed": "0xb4a9",
      "effectiveGasPrice": "0x1312d01",
      "blobGasUsed": "0x9c40",
      "from": "0xd2d120eb7ced38551ccefb48021067d41d6542d3",
      "to": "0x81902d53cc0fd247196508af9df596cd387d7321",
      "contractAddress": null,
      "daFootprintGasScalar": "0x190",
      "l1BaseFeeScalar": "0x0",
      "l1BlobBaseFee": "0x5bcf26",
      "l1BlobBaseFeeScalar": "0x0",
      "l1Fee": "0x0",
      "l1GasPrice": "0x6a483ba",
      "l1GasUsed": "0x640"
    },
    {
      "status": "0x1",
      "cumulativeGasUsed": "0x1eb759",
      "logs": [
        {
          "address": "0xe538905cf8410324e03a5a23c1c177a474d59b2b",
          "topics": [
            "0x8c5be1e5ebec7d5bd14f71427d1e84f3dd0314c0f7b2291e5b200ac8c7c3b925",
            "0x000000000000000000000000d2d120eb7ced38551ccefb48021067d41d6542d3",
            "0x0000000000000000000000008f34a069f09412833050f088555151cc7e26b93a"
          ],
          "data": "0xffffffffffffffffffffffffffffffffffffffffffffffffffffffffffffffff",
          "blockHash": "0x6d8055cbf0db0ce5972f146e45387c8e7e759deee654fbf3d28379192d6702db",
          "blockNumber": "0x35e76cf",
          "blockTimestamp": "0x69d0cc5b",
          "transactionHash": "0xc044db8f88c390545b8f24d8de4239560b7addfd43b8a4c311c98d56612f0bc9",
          "transactionIndex": "0x9",
          "logIndex": "0x8",
          "removed": false
        }
      ],
      "logsBloom": "0x00000000000000000000000000000000000000000000000000000000000000200000000000000000000000000400000000000000000000000000000000200000000000000000000000080000000000000000000000000000000000000000000000000000000000000000000000000000000000000000000000000000000000000000000000000000000000000000000000000000000000000000000000000000020000000000000020000000000000000010000000000000010000000000000000000000000000000000000000000000000100000000000000000000000000004010000000000000000000000000000000000000000000000000000000000800",
      "type": "0x2",
      "transactionHash": "0xc044db8f88c390545b8f24d8de4239560b7addfd43b8a4c311c98d56612f0bc9",
      "transactionIndex": "0x9",
      "blockHash": "0x6d8055cbf0db0ce5972f146e45387c8e7e759deee654fbf3d28379192d6702db",
      "blockNumber": "0x35e76cf",
      "gasUsed": "0xb53d",
      "effectiveGasPrice": "0x1312d01",
      "blobGasUsed": "0x9c40",
      "from": "0xd2d120eb7ced38551ccefb48021067d41d6542d3",
      "to": "0xe538905cf8410324e03a5a23c1c177a474d59b2b",
      "contractAddress": null,
      "daFootprintGasScalar": "0x190",
      "l1BaseFeeScalar": "0x0",
      "l1BlobBaseFee": "0x5bcf26",
      "l1BlobBaseFeeScalar": "0x0",
      "l1Fee": "0x0",
      "l1GasPrice": "0x6a483ba",
      "l1GasUsed": "0x640"
    },
    {
      "status": "0x1",
      "cumulativeGasUsed": "0x16903",
      "logs": [
        {
          "address": "0x81902d53cc0fd247196508af9df596cd387d7321",
          "topics": [
            "0x8c5be1e5ebec7d5bd14f71427d1e84f3dd0314c0f7b2291e5b200ac8c7c3b925",
            "0x000000000000000000000000d2d120eb7ced38551ccefb48021067d41d6542d3",
            "0x0000000000000000000000008f34a069f09412833050f088555151cc7e26b93a"
          ],
          "data": "0xffffffffffffffffffffffffffffffffffffffffffffffffffffffffffffffff",
          "blockHash": "0xbd9edb1c648b674be459aaed0faade7aee64d2d689d94370ec9965447afa3046",
          "blockNumber": "0x35e76d0",
          "blockTimestamp": "0x69d0cc5c",
          "transactionHash": "0x1d0d23f6eddd65300310d147cf44d48a11811a04affc42e8ad35527162bb2a12",
          "transactionIndex": "0x1",
          "logIndex": "0x0",
          "removed": false
        }
      ],
      "logsBloom": "0x00000000000800000000000000000000000000000000000000000000000000000000000000000000000000000000000000000000000000000000000000200000000000000000000000080000000000000000000000000000000000000000000000000000000000000000000000000000000000000000000000000000000000000000000000000000000000000000400000000000000000000000000000000000020000000000040020000000000000000010000000000000000000000000000000000000000000000000000000000000000100000000000000000000000000004010000000000000000000000000000000000000000000000000000000000800",
      "type": "0x2",
      "transactionHash": "0x1d0d23f6eddd65300310d147cf44d48a11811a04affc42e8ad35527162bb2a12",
      "transactionIndex": "0x1",
      "blockHash": "0xbd9edb1c648b674be459aaed0faade7aee64d2d689d94370ec9965447afa3046",
      "blockNumber": "0x35e76d0",
      "gasUsed": "0xb4a9",
      "effectiveGasPrice": "0x1312d01",
      "blobGasUsed": "0x9c40",
      "from": "0xd2d120eb7ced38551ccefb48021067d41d6542d3",
      "to": "0x81902d53cc0fd247196508af9df596cd387d7321",
      "contractAddress": null,
      "daFootprintGasScalar": "0x190",
      "l1BaseFeeScalar": "0x0",
      "l1BlobBaseFee": "0x5bcf26",
      "l1BlobBaseFeeScalar": "0x0",
      "l1Fee": "0x0",
      "l1GasPrice": "0x6a483ba",
      "l1GasUsed": "0x640"
    },
    {
      "status": "0x1",
      "cumulativeGasUsed": "0x5793c",
      "logs": [
        {
          "address": "0x360e68faccca8ca495c1b759fd9eee466db9fb32",
          "topics": [
            "0xf208f4912782fd25c7f114ca3723a2d5dd6f3bcc3ac8db5af63baa85f711d5ec",
            "0x2c3cd4c726c2922a4fc4253321a9a54bf02c70fb1840f05d51411337e4793c08",
            "0x000000000000000000000000e5b0c83404b8f00de63caf8b258515fffa134a24"
          ],
          "data": "0xffffffffffffffffffffffffffffffffffffffffffffffffffffffffffffe890000000000000000000000000000000000000000000000000000000000000177000000000000000000000000000000000000000000000000000038d7ea4c680000000000000000000000000000000000000000000000000000000000000000000",
          "blockHash": "0xbd9edb1c648b674be459aaed0faade7aee64d2d689d94370ec9965447afa3046",
          "blockNumber": "0x35e76d0",
          "blockTimestamp": "0x69d0cc5c",
          "transactionHash": "0xfce99e77a4cd4e5b5ea82664d3c32e484105bf22d29307dd50fb145e0897c705",
          "transactionIndex": "0x2",
          "logIndex": "0x1",
          "removed": false
        },
        {
          "address": "0x81902d53cc0fd247196508af9df596cd387d7321",
          "topics": [
            "0xddf252ad1be2c89b69c2b068fc378daa952ba7f163c4a11628f55a4df523b3ef",
            "0x000000000000000000000000d2d120eb7ced38551ccefb48021067d41d6542d3",
            "0x000000000000000000000000360e68faccca8ca495c1b759fd9eee466db9fb32"
          ],
          "data": "0x0000000000000000000000000000000000000000000000000000ebb6df95a884",
          "blockHash": "0xbd9edb1c648b674be459aaed0faade7aee64d2d689d94370ec9965447afa3046",
          "blockNumber": "0x35e76d0",
          "blockTimestamp": "0x69d0cc5c",
          "transactionHash": "0xfce99e77a4cd4e5b5ea82664d3c32e484105bf22d29307dd50fb145e0897c705",
          "transactionIndex": "0x2",
          "logIndex": "0x2",
          "removed": false
        },
        {
          "address": "0xe538905cf8410324e03a5a23c1c177a474d59b2b",
          "topics": [
            "0xddf252ad1be2c89b69c2b068fc378daa952ba7f163c4a11628f55a4df523b3ef",
            "0x000000000000000000000000d2d120eb7ced38551ccefb48021067d41d6542d3",
            "0x000000000000000000000000360e68faccca8ca495c1b759fd9eee466db9fb32"
          ],
          "data": "0x0000000000000000000000000000000000000000000000000000ebb6df95a884",
          "blockHash": "0xbd9edb1c648b674be459aaed0faade7aee64d2d689d94370ec9965447afa3046",
          "blockNumber": "0x35e76d0",
          "blockTimestamp": "0x69d0cc5c",
          "transactionHash": "0xfce99e77a4cd4e5b5ea82664d3c32e484105bf22d29307dd50fb145e0897c705",
          "transactionIndex": "0x2",
          "logIndex": "0x3",
          "removed": false
        }
      ],
      "logsBloom": "0x00000000000800000000000000000000000000000000000000000000000004200000000000000000000000000c00000000000000000000000000000000000000000000000000000001000008000000000000000000000000000000000000000000010000000000000000000000000000000000000000000000000010000000000000000001000000000000000000400000000000000000000000000200000000000004000000040000000000000000000010000001000000010000000000000000000002000000000400000000000000000104000000000041000000000000004000000000000000000001000000000004000000000000000000000000000008",
      "type": "0x2",
      "transactionHash": "0xfce99e77a4cd4e5b5ea82664d3c32e484105bf22d29307dd50fb145e0897c705",
      "transactionIndex": "0x2",
      "blockHash": "0xbd9edb1c648b674be459aaed0faade7aee64d2d689d94370ec9965447afa3046",
      "blockNumber": "0x35e76d0",
      "gasUsed": "0x41039",
      "effectiveGasPrice": "0x1312d01",
      "blobGasUsed": "0x10b30",
      "from": "0xd2d120eb7ced38551ccefb48021067d41d6542d3",
      "to": "0xe5b0c83404b8f00de63caf8b258515fffa134a24",
      "contractAddress": null,
      "daFootprintGasScalar": "0x190",
      "l1BaseFeeScalar": "0x0",
      "l1BlobBaseFee": "0x5bcf26",
      "l1BlobBaseFeeScalar": "0x0",
      "l1Fee": "0x0",
      "l1GasPrice": "0x6a483ba",
      "l1GasUsed": "0xab8"
    },
    {
      "status": "0x1",
      "cumulativeGasUsed": "0x8c048",
      "logs": [
        {
          "address": "0x277ee5801d5d1e5126a76c986c96923ab5ec54ed",
          "topics": [
            "0xbc2c050176af0f1aa90d03264c2fa7759f0c00cac6d105fdf72419d989c74756"
          ],
          "data": "0x00000000000000000000000000000000000000000000000000000000000027100000000000000000000000000000000000000000000000000000000000000000000000000000000000000000000000000000000000000000000009184e72a000",
          "blockHash": "0xbd9edb1c648b674be459aaed0faade7aee64d2d689d94370ec9965447afa3046",
          "blockNumber": "0x35e76d0",
          "blockTimestamp": "0x69d0cc5c",
          "transactionHash": "0x11a4682581605858388b2513b8d283bcd993254b17d0eb068f6cb921498a7826",
          "transactionIndex": "0x3",
          "logIndex": "0x4",
          "removed": false
        },
        {
          "address": "0xc5e851fec9188dd4f6ccb2ebc134b33210d4ac78",
          "topics": [
            "0x9d1f0c448150fafee9ee6e790c1f25ed2f9f658904558043edd1976f56828362",
            "0x0000000000000000000000000000000000000000000000000000000000000000"
          ],
          "data": "0x00000000000000000000000000000000000000000000000000000000000027100000000000000000000000000000000000000000000000000000000000000000000000000000000000000000000000000000000000000000000009184e72a000",
          "blockHash": "0xbd9edb1c648b674be459aaed0faade7aee64d2d689d94370ec9965447afa3046",
          "blockNumber": "0x35e76d0",
          "blockTimestamp": "0x69d0cc5c",
          "transactionHash": "0x11a4682581605858388b2513b8d283bcd993254b17d0eb068f6cb921498a7826",
          "transactionIndex": "0x3",
          "logIndex": "0x5",
          "removed": false
        },
        {
          "address": "0x360e68faccca8ca495c1b759fd9eee466db9fb32",
          "topics": [
            "0x40e9cecb9f5f1f1c5b9c97dec2917b7ee92e57ba5563708daca94dd84ad7112f",
            "0x2c3cd4c726c2922a4fc4253321a9a54bf02c70fb1840f05d51411337e4793c08",
            "0x0000000000000000000000008f34a069f09412833050f088555151cc7e26b93a"
          ],
          "data": "0xfffffffffffffffffffffffffffffffffffffffffffffffffffff6e7b18d6000000000000000000000000000000000000000000000000000000008ea6d6640860000000000000000000000000000000000000000fd7d8dc6f6f34cd53c751cd300000000000000000000000000000000000000000000000000038d7ea4c68000ffffffffffffffffffffffffffffffffffffffffffffffffffffffffffffff3a0000000000000000000000000000000000000000000000000000000000002710",
          "blockHash": "0xbd9edb1c648b674be459aaed0faade7aee64d2d689d94370ec9965447afa3046",
          "blockNumber": "0x35e76d0",
          "blockTimestamp": "0x69d0cc5c",
          "transactionHash": "0x11a4682581605858388b2513b8d283bcd993254b17d0eb068f6cb921498a7826",
          "transactionIndex": "0x3",
          "logIndex": "0x6",
          "removed": false
        },
        {
          "address": "0x81902d53cc0fd247196508af9df596cd387d7321",
          "topics": [
            "0xddf252ad1be2c89b69c2b068fc378daa952ba7f163c4a11628f55a4df523b3ef",
            "0x000000000000000000000000d2d120eb7ced38551ccefb48021067d41d6542d3",
            "0x000000000000000000000000360e68faccca8ca495c1b759fd9eee466db9fb32"
          ],
          "data": "0x000000000000000000000000000000000000000000000000000009184e72a000",
          "blockHash": "0xbd9edb1c648b674be459aaed0faade7aee64d2d689d94370ec9965447afa3046",
          "blockNumber": "0x35e76d0",
          "blockTimestamp": "0x69d0cc5c",
          "transactionHash": "0x11a4682581605858388b2513b8d283bcd993254b17d0eb068f6cb921498a7826",
          "transactionIndex": "0x3",
          "logIndex": "0x7",
          "removed": false
        },
        {
          "address": "0xe538905cf8410324e03a5a23c1c177a474d59b2b",
          "topics": [
            "0xddf252ad1be2c89b69c2b068fc378daa952ba7f163c4a11628f55a4df523b3ef",
            "0x000000000000000000000000360e68faccca8ca495c1b759fd9eee466db9fb32",
            "0x000000000000000000000000d2d120eb7ced38551ccefb48021067d41d6542d3"
          ],
          "data": "0x000000000000000000000000000000000000000000000000000008ea6d664086",
          "blockHash": "0xbd9edb1c648b674be459aaed0faade7aee64d2d689d94370ec9965447afa3046",
          "blockNumber": "0x35e76d0",
          "blockTimestamp": "0x69d0cc5c",
          "transactionHash": "0x11a4682581605858388b2513b8d283bcd993254b17d0eb068f6cb921498a7826",
          "transactionIndex": "0x3",
          "logIndex": "0x8",
          "removed": false
        }
      ],
      "logsBloom": "0x00000010000800000000000000000000000000000000000000000000010004200000000000000000000000000c00001000100000040000000000000000000000000000001000000001080008000000000000000000000220000000000000000000010000020000000000000000004800000000000000400000000010000000000000000000000000000000000000600000000000010000008000000200000000000000000000040020000000000000000010000001000000010000000000000000000002000000000400000000000000000104000000000001000000000020004000000000000000004000000000000000000000000000000000000000000808",
      "type": "0x2",
      "transactionHash": "0x11a4682581605858388b2513b8d283bcd993254b17d0eb068f6cb921498a7826",
      "transactionIndex": "0x3",
      "blockHash": "0xbd9edb1c648b674be459aaed0faade7aee64d2d689d94370ec9965447afa3046",
      "blockNumber": "0x35e76d0",
      "gasUsed": "0x3470c",
      "effectiveGasPrice": "0x1312d01",
      "blobGasUsed": "0xef10",
      "from": "0xd2d120eb7ced38551ccefb48021067d41d6542d3",
      "to": "0x8f34a069f09412833050f088555151cc7e26b93a",
      "contractAddress": null,
      "daFootprintGasScalar": "0x190",
      "l1BaseFeeScalar": "0x0",
      "l1BlobBaseFee": "0x5bcf26",
      "l1BlobBaseFeeScalar": "0x0",
      "l1Fee": "0x0",
      "l1GasPrice": "0x6a483ba",
      "l1GasUsed": "0x99f"
    },
    {
      "status": "0x1",
      "cumulativeGasUsed": "0xbf1eb",
      "logs": [
        {
          "address": "0x277ee5801d5d1e5126a76c986c96923ab5ec54ed",
          "topics": [
            "0xbc2c050176af0f1aa90d03264c2fa7759f0c00cac6d105fdf72419d989c74756"
          ],
          "data": "0x000000000000000000000000000000000000000000000000000000000000271000000000000000000000000000000000000000000000000000000000000000000000000000000000000000000000000000000000000000000000048c27395000",
          "blockHash": "0xbd9edb1c648b674be459aaed0faade7aee64d2d689d94370ec9965447afa3046",
          "blockNumber": "0x35e76d0",
          "blockTimestamp": "0x69d0cc5c",
          "transactionHash": "0x0639813141308eb77007acbd6b5643303caf52ba03f0b11c61725f74a0dbe087",
          "transactionIndex": "0x4",
          "logIndex": "0x9",
          "removed": false
        },
        {
          "address": "0xc5e851fec9188dd4f6ccb2ebc134b33210d4ac78",
          "topics": [
            "0x9d1f0c448150fafee9ee6e790c1f25ed2f9f658904558043edd1976f56828362",
            "0x0000000000000000000000000000000000000000000000000000000000000000"
          ],
          "data": "0x000000000000000000000000000000000000000000000000000000000000271000000000000000000000000000000000000000000000000000000000000000000000000000000000000000000000000000000000000000000000048c27395000",
          "blockHash": "0xbd9edb1c648b674be459aaed0faade7aee64d2d689d94370ec9965447afa3046",
          "blockNumber": "0x35e76d0",
          "blockTimestamp": "0x69d0cc5c",
          "transactionHash": "0x0639813141308eb77007acbd6b5643303caf52ba03f0b11c61725f74a0dbe087",
          "transactionIndex": "0x4",
          "logIndex": "0xa",
          "removed": false
        },
        {
          "address": "0x360e68faccca8ca495c1b759fd9eee466db9fb32",
          "topics": [
            "0x40e9cecb9f5f1f1c5b9c97dec2917b7ee92e57ba5563708daca94dd84ad7112f",
            "0x2c3cd4c726c2922a4fc4253321a9a54bf02c70fb1840f05d51411337e4793c08",
            "0x0000000000000000000000008f34a069f09412833050f088555151cc7e26b93a"
          ],
          "data": "0x0000000000000000000000000000000000000000000000000000049198f91c78fffffffffffffffffffffffffffffffffffffffffffffffffffffb73d8c6b0000000000000000000000000000000000000000000fec1f4ff14710c1dbc40af0d00000000000000000000000000000000000000000000000000038d7ea4c68000ffffffffffffffffffffffffffffffffffffffffffffffffffffffffffffff9e0000000000000000000000000000000000000000000000000000000000002710",
          "blockHash": "0xbd9edb1c648b674be459aaed0faade7aee64d2d689d94370ec9965447afa3046",
          "blockNumber": "0x35e76d0",
          "blockTimestamp": "0x69d0cc5c",
          "transactionHash": "0x0639813141308eb77007acbd6b5643303caf52ba03f0b11c61725f74a0dbe087",
          "transactionIndex": "0x4",
          "logIndex": "0xb",
          "removed": false
        },
        {
          "address": "0x81902d53cc0fd247196508af9df596cd387d7321",
          "topics": [
            "0xddf252ad1be2c89b69c2b068fc378daa952ba7f163c4a11628f55a4df523b3ef",
            "0x000000000000000000000000360e68faccca8ca495c1b759fd9eee466db9fb32",
            "0x000000000000000000000000d2d120eb7ced38551ccefb48021067d41d6542d3"
          ],
          "data": "0x0000000000000000000000000000000000000000000000000000049198f91c78",
          "blockHash": "0xbd9edb1c648b674be459aaed0faade7aee64d2d689d94370ec9965447afa3046",
          "blockNumber": "0x35e76d0",
          "blockTimestamp": "0x69d0cc5c",
          "transactionHash": "0x0639813141308eb77007acbd6b5643303caf52ba03f0b11c61725f74a0dbe087",
          "transactionIndex": "0x4",
          "logIndex": "0xc",
          "removed": false
        },
        {
          "address": "0xe538905cf8410324e03a5a23c1c177a474d59b2b",
          "topics": [
            "0xddf252ad1be2c89b69c2b068fc378daa952ba7f163c4a11628f55a4df523b3ef",
            "0x000000000000000000000000d2d120eb7ced38551ccefb48021067d41d6542d3",
            "0x000000000000000000000000360e68faccca8ca495c1b759fd9eee466db9fb32"
          ],
          "data": "0x0000000000000000000000000000000000000000000000000000048c27395000",
          "blockHash": "0xbd9edb1c648b674be459aaed0faade7aee64d2d689d94370ec9965447afa3046",
          "blockNumber": "0x35e76d0",
          "blockTimestamp": "0x69d0cc5c",
          "transactionHash": "0x0639813141308eb77007acbd6b5643303caf52ba03f0b11c61725f74a0dbe087",
          "transactionIndex": "0x4",
          "logIndex": "0xd",
          "removed": false
        }
      ],
      "logsBloom": "0x00000010000800000000000000000000000000000000000000000000010004200000000000000000000000000c00001000100000040000000000000000000000000000001000000001080008000000000000000000000220000000000000000000010000020000000000000000004800000000000000400000000010000000000000000000000000000000000000600000000000010000008000000200000000000000000000040020000000000000000010000001000000010000000000000000000002000000000400000000000000000104000000000001000000000020004000000000000000004000000000000000000000000000000000000000000808",
      "type": "0x2",
      "transactionHash": "0x0639813141308eb77007acbd6b5643303caf52ba03f0b11c61725f74a0dbe087",
      "transactionIndex": "0x4",
      "blockHash": "0xbd9edb1c648b674be459aaed0faade7aee64d2d689d94370ec9965447afa3046",
      "blockNumber": "0x35e76d0",
      "gasUsed": "0x331a3",
      "effectiveGasPrice": "0x1312d01",
      "blobGasUsed": "0x10040",
      "from": "0xd2d120eb7ced38551ccefb48021067d41d6542d3",
      "to": "0x8f34a069f09412833050f088555151cc7e26b93a",
      "contractAddress": null,
      "daFootprintGasScalar": "0x190",
      "l1BaseFeeScalar": "0x0",
      "l1BlobBaseFee": "0x5bcf26",
      "l1BlobBaseFeeScalar": "0x0",
      "l1Fee": "0x0",
      "l1GasPrice": "0x6a483ba",
      "l1GasUsed": "0xa4d"
    },
    {
      "status": "0x1",
      "cumulativeGasUsed": "0xee221",
      "logs": [
        {
          "address": "0x277ee5801d5d1e5126a76c986c96923ab5ec54ed",
          "topics": [
            "0xbc2c050176af0f1aa90d03264c2fa7759f0c00cac6d105fdf72419d989c74756"
          ],
          "data": "0x00000000000000000000000000000000000000000000000000000000000027100000000000000000000000000000000000000000000000000000000000000000000000000000000000000000000000000000000000000000000012309ce54000",
          "blockHash": "0xbd9edb1c648b674be459aaed0faade7aee64d2d689d94370ec9965447afa3046",
          "blockNumber": "0x35e76d0",
          "blockTimestamp": "0x69d0cc5c",
          "transactionHash": "0x27a17ff8833af77f2f3538babcbb8255af690a43986f499ac16976827f86d0fc",
          "transactionIndex": "0x5",
          "logIndex": "0xe",
          "removed": false
        },
        {
          "address": "0xc5e851fec9188dd4f6ccb2ebc134b33210d4ac78",
          "topics": [
            "0x9d1f0c448150fafee9ee6e790c1f25ed2f9f658904558043edd1976f56828362",
            "0x0000000000000000000000000000000000000000000000000000000000000000"
          ],
          "data": "0x00000000000000000000000000000000000000000000000000000000000027100000000000000000000000000000000000000000000000000000000000000000000000000000000000000000000000000000000000000000000012309ce54000",
          "blockHash": "0xbd9edb1c648b674be459aaed0faade7aee64d2d689d94370ec9965447afa3046",
          "blockNumber": "0x35e76d0",
          "blockTimestamp": "0x69d0cc5c",
          "transactionHash": "0x27a17ff8833af77f2f3538babcbb8255af690a43986f499ac16976827f86d0fc",
          "transactionIndex": "0x5",
          "logIndex": "0xf",
          "removed": false
        },
        {
          "address": "0x360e68faccca8ca495c1b759fd9eee466db9fb32",
          "topics": [
            "0x40e9cecb9f5f1f1c5b9c97dec2917b7ee92e57ba5563708daca94dd84ad7112f",
            "0x2c3cd4c726c2922a4fc4253321a9a54bf02c70fb1840f05d51411337e4793c08",
            "0x0000000000000000000000008f34a069f09412833050f088555151cc7e26b93a"
          ],
          "data": "0xffffffffffffffffffffffffffffffffffffffffffffffffffffedcf631ac0000000000000000000000000000000000000000000000000000000117d314489510000000000000000000000000000000000000000f9d5bd47bf9b4be7ae294ce700000000000000000000000000000000000000000000000000038d7ea4c68000fffffffffffffffffffffffffffffffffffffffffffffffffffffffffffffe180000000000000000000000000000000000000000000000000000000000002710",
          "blockHash": "0xbd9edb1c648b674be459aaed0faade7aee64d2d689d94370ec9965447afa3046",
          "blockNumber": "0x35e76d0",
          "blockTimestamp": "0x69d0cc5c",
          "transactionHash": "0x27a17ff8833af77f2f3538babcbb8255af690a43986f499ac16976827f86d0fc",
          "transactionIndex": "0x5",
          "logIndex": "0x10",
          "removed": false
        },
        {
          "address": "0x81902d53cc0fd247196508af9df596cd387d7321",
          "topics": [
            "0xddf252ad1be2c89b69c2b068fc378daa952ba7f163c4a11628f55a4df523b3ef",
            "0x000000000000000000000000d2d120eb7ced38551ccefb48021067d41d6542d3",
            "0x000000000000000000000000360e68faccca8ca495c1b759fd9eee466db9fb32"
          ],
          "data": "0x000000000000000000000000000000000000000000000000000012309ce54000",
          "blockHash": "0xbd9edb1c648b674be459aaed0faade7aee64d2d689d94370ec9965447afa3046",
          "blockNumber": "0x35e76d0",
          "blockTimestamp": "0x69d0cc5c",
          "transactionHash": "0x27a17ff8833af77f2f3538babcbb8255af690a43986f499ac16976827f86d0fc",
          "transactionIndex": "0x5",
          "logIndex": "0x11",
          "removed": false
        },
        {
          "address": "0xe538905cf8410324e03a5a23c1c177a474d59b2b",
          "topics": [
            "0xddf252ad1be2c89b69c2b068fc378daa952ba7f163c4a11628f55a4df523b3ef",
            "0x000000000000000000000000360e68faccca8ca495c1b759fd9eee466db9fb32",
            "0x000000000000000000000000d2d120eb7ced38551ccefb48021067d41d6542d3"
          ],
          "data": "0x0000000000000000000000000000000000000000000000000000117d31448951",
          "blockHash": "0xbd9edb1c648b674be459aaed0faade7aee64d2d689d94370ec9965447afa3046",
          "blockNumber": "0x35e76d0",
          "blockTimestamp": "0x69d0cc5c",
          "transactionHash": "0x27a17ff8833af77f2f3538babcbb8255af690a43986f499ac16976827f86d0fc",
          "transactionIndex": "0x5",
          "logIndex": "0x12",
          "removed": false
        }
      ],
      "logsBloom": "0x00000010000800000000000000000000000000000000000000000000010004200000000000000000000000000c00001000100000040000000000000000000000000000001000000001080008000000000000000000000220000000000000000000010000020000000000000000004800000000000000400000000010000000000000000000000000000000000000600000000000010000008000000200000000000000000000040020000000000000000010000001000000010000000000000000000002000000000400000000000000000104000000000001000000000020004000000000000000004000000000000000000000000000000000000000000808",
      "type": "0x2",
      "transactionHash": "0x27a17ff8833af77f2f3538babcbb8255af690a43986f499ac16976827f86d0fc",
      "transactionIndex": "0x5",
      "blockHash": "0xbd9edb1c648b674be459aaed0faade7aee64d2d689d94370ec9965447afa3046",
      "blockNumber": "0x35e76d0",
      "gasUsed": "0x2f036",
      "effectiveGasPrice": "0x1312d01",
      "blobGasUsed": "0xed80",
      "from": "0xd2d120eb7ced38551ccefb48021067d41d6542d3",
      "to": "0x8f34a069f09412833050f088555151cc7e26b93a",
      "contractAddress": null,
      "daFootprintGasScalar": "0x190",
      "l1BaseFeeScalar": "0x0",
      "l1BlobBaseFee": "0x5bcf26",
      "l1BlobBaseFeeScalar": "0x0",
      "l1Fee": "0x0",
      "l1GasPrice": "0x6a483ba",
      "l1GasUsed": "0x985"
    }
  ],
  "libraries": [],
  "pending": [],
  "returns": {},
  "timestamp": 1775291484976,
  "chain": 196,
  "commit": "72d6f12"
}