{
  "transactions": [
    {
      "hash": "0xffe34562b809f09d197c84d5a8f7a4860c11c9a4557f75d2aefccab35dbca44e",
      "transactionType": "CREATE",
      "contractName": "TestToken",
      "contractAddress": "0xec083384525d8ecdd5c11e00e857d9094a2e7ee5",
      "function": null,
      "arguments": [
        "Genesis Alpha",
        "GALPHA",
        "1000000000000000000000000"
      ],
      "transaction": {
        "from": "0xd2d120eb7ced38551ccefb48021067d41d6542d3",
        "gas": "0x94216",
        "value": "0x0",
        "input": "0x608060405234610354576109538038038061001981610358565b9283398101906060818303126103545780516001600160401b038111610354578261004591830161037d565b60208201519092906001600160401b0381116103545760409161006991840161037d565b91015182516001600160401b038111610268575f54600181811c9116801561034a575b602082101461024a57601f81116102e8575b506020601f821160011461028757819293945f9261027c575b50508160011b915f199060031b1c1916175f555b81516001600160401b03811161026857600154600181811c9116801561025e575b602082101461024a57601f81116101e7575b50602092601f821160011461018657928192935f9261017b575b50508160011b915f199060031b1c1916176001555b80600255335f5260036020528060405f20556040519081525f7fddf252ad1be2c89b69c2b068fc378daa952ba7f163c4a11628f55a4df523b3ef60203393a360405161058490816103cf8239f35b015190505f80610118565b601f1982169360015f52805f20915f5b8681106101cf57508360019596106101b7575b505050811b0160015561012d565b01515f1960f88460031b161c191690555f80806101a9565b91926020600181928685015181550194019201610196565b60015f527fb10e2d527612073b26eecdfd717e6a320cf44b4afac2b0732d9fcbe2b7fa0cf6601f830160051c81019160208410610240575b601f0160051c01905b81811061023557506100fe565b5f8155600101610228565b909150819061021f565b634e487b7160e01b5f52602260045260245ffd5b90607f16906100ec565b634e487b7160e01b5f52604160045260245ffd5b015190505f806100b7565b601f198216905f8052805f20915f5b8181106102d0575095836001959697106102b8575b505050811b015f556100cb565b01515f1960f88460031b161c191690555f80806102ab565b9192602060018192868b015181550194019201610296565b5f80527f290decd9548b62a8d60345a988386fc84ba6bc95484008f6362f93160ef3e563601f830160051c81019160208410610340575b601f0160051c01905b818110610335575061009e565b5f8155600101610328565b909150819061031f565b90607f169061008c565b5f80fd5b6040519190601f01601f191682016001600160401b0381118382101761026857604052565b81601f82011215610354578051906001600160401b038211610268576103ac601f8301601f1916602001610358565b928284526020838301011161035457815f9260208093018386015e830101529056fe60806040526004361015610011575f80fd5b5f3560e01c806306fdde031461038d578063095ea7b31461031457806318160ddd146102f757806323b872dd14610273578063313ce5671461025857806370a082311461022057806395d89b4114610102578063a9059cbb146100d05763dd62ed3e1461007c575f80fd5b346100cc5760403660031901126100cc57610095610489565b61009d61049f565b6001600160a01b039182165f908152600460209081526040808320949093168252928352819020549051908152f35b5f80fd5b346100cc5760403660031901126100cc5760206100f86100ee610489565b60243590336104d6565b6040519015158152f35b346100cc575f3660031901126100cc576040515f6001548060011c90600181168015610216575b602083108114610202578285529081156101e65750600114610190575b50819003601f01601f191681019067ffffffffffffffff82118183101761017c5760408290528190610178908261045f565b0390f35b634e487b7160e01b5f52604160045260245ffd5b60015f9081529091507fb10e2d527612073b26eecdfd717e6a320cf44b4afac2b0732d9fcbe2b7fa0cf65b8282106101d057506020915082010182610146565b60018160209254838588010152019101906101bb565b90506020925060ff191682840152151560051b82010182610146565b634e487b7160e01b5f52602260045260245ffd5b91607f1691610129565b346100cc5760203660031901126100cc576001600160a01b03610241610489565b165f526003602052602060405f2054604051908152f35b346100cc575f3660031901126100cc57602060405160128152f35b346100cc5760603660031901126100cc5760206100f8610291610489565b61029961049f565b6001600160a01b0382165f818152600486526040808220338352875290205460443593919084600182016102d0575b5050506104d6565b6102d9916104b5565b5f9182526004875260408083203384528852909120558580846102c8565b346100cc575f3660031901126100cc576020600254604051908152f35b346100cc5760403660031901126100cc5761032d610489565b335f8181526004602090815260408083206001600160a01b03909516808452948252918290206024359081905591519182527f8c5be1e5ebec7d5bd14f71427d1e84f3dd0314c0f7b2291e5b200ac8c7c3b92591a3602060405160018152f35b346100cc575f3660031901126100cc576040515f80548060011c90600181168015610455575b602083108114610202578285529081156101e657506001146104015750819003601f01601f191681019067ffffffffffffffff82118183101761017c5760408290528190610178908261045f565b5f8080529091507f290decd9548b62a8d60345a988386fc84ba6bc95484008f6362f93160ef3e5635b82821061043f57506020915082010182610146565b600181602092548385880101520191019061042a565b91607f16916103b3565b602060409281835280519182918282860152018484015e5f828201840152601f01601f1916010190565b600435906001600160a01b03821682036100cc57565b602435906001600160a01b03821682036100cc57565b919082039182116104c257565b634e487b7160e01b5f52601160045260245ffd5b60018060a01b031690815f52600360205260405f206104f68482546104b5565b90556001600160a01b03165f818152600360205260409020805491938281019283106104c2577fddf252ad1be2c89b69c2b068fc378daa952ba7f163c4a11628f55a4df523b3ef9260209255604051908152a360019056fea2646970667358221220043a75b72941054e33c9df0d5155c8a848df6831708216a265b060ab0a1ac5af64736f6c634300081a0033000000000000000000000000000000000000000000000000000000000000006000000000000000000000000000000000000000000000000000000000000000a000000000000000000000000000000000000000000000d3c21bcecceda1000000000000000000000000000000000000000000000000000000000000000000000d47656e6573697320416c70686100000000000000000000000000000000000000000000000000000000000000000000000000000000000000000000000000000647414c5048410000000000000000000000000000000000000000000000000000",
        "nonce": "0x51",
        "chainId": "0xc4"
      },
      "additionalContracts": [],
      "isFixedGasLimit": false
    },
    {
      "hash": "0x747dbd430b62b0efebb4ebfea013357200444cfbfb68fde2aa0d559c8e5a4f46",
      "transactionType": "CREATE",
      "contractName": "TestToken",
      "contractAddress": "0x212ed261355021e04e8c18e2c32e1dba5d215c7e",
      "function": null,
      "arguments": [
        "Genesis Beta",
        "GBETA",
        "1000000000000000000000000"
      ],
      "transaction": {
        "from": "0xd2d120eb7ced38551ccefb48021067d41d6542d3",
        "gas": "0x941f7",
        "value": "0x0",
        "input": "0x608060405234610354576109538038038061001981610358565b9283398101906060818303126103545780516001600160401b038111610354578261004591830161037d565b60208201519092906001600160401b0381116103545760409161006991840161037d565b91015182516001600160401b038111610268575f54600181811c9116801561034a575b602082101461024a57601f81116102e8575b506020601f821160011461028757819293945f9261027c575b50508160011b915f199060031b1c1916175f555b81516001600160401b03811161026857600154600181811c9116801561025e575b602082101461024a57601f81116101e7575b50602092601f821160011461018657928192935f9261017b575b50508160011b915f199060031b1c1916176001555b80600255335f5260036020528060405f20556040519081525f7fddf252ad1be2c89b69c2b068fc378daa952ba7f163c4a11628f55a4df523b3ef60203393a360405161058490816103cf8239f35b015190505f80610118565b601f1982169360015f52805f20915f5b8681106101cf57508360019596106101b7575b505050811b0160015561012d565b01515f1960f88460031b161c191690555f80806101a9565b91926020600181928685015181550194019201610196565b60015f527fb10e2d527612073b26eecdfd717e6a320cf44b4afac2b0732d9fcbe2b7fa0cf6601f830160051c81019160208410610240575b601f0160051c01905b81811061023557506100fe565b5f8155600101610228565b909150819061021f565b634e487b7160e01b5f52602260045260245ffd5b90607f16906100ec565b634e487b7160e01b5f52604160045260245ffd5b015190505f806100b7565b601f198216905f8052805f20915f5b8181106102d0575095836001959697106102b8575b505050811b015f556100cb565b01515f1960f88460031b161c191690555f80806102ab565b9192602060018192868b015181550194019201610296565b5f80527f290decd9548b62a8d60345a988386fc84ba6bc95484008f6362f93160ef3e563601f830160051c81019160208410610340575b601f0160051c01905b818110610335575061009e565b5f8155600101610328565b909150819061031f565b90607f169061008c565b5f80fd5b6040519190601f01601f191682016001600160401b0381118382101761026857604052565b81601f82011215610354578051906001600160401b038211610268576103ac601f8301601f1916602001610358565b928284526020838301011161035457815f9260208093018386015e830101529056fe60806040526004361015610011575f80fd5b5f3560e01c806306fdde031461038d578063095ea7b31461031457806318160ddd146102f757806323b872dd14610273578063313ce5671461025857806370a082311461022057806395d89b4114610102578063a9059cbb146100d05763dd62ed3e1461007c575f80fd5b346100cc5760403660031901126100cc57610095610489565b61009d61049f565b6001600160a01b039182165f908152600460209081526040808320949093168252928352819020549051908152f35b5f80fd5b346100cc5760403660031901126100cc5760206100f86100ee610489565b60243590336104d6565b6040519015158152f35b346100cc575f3660031901126100cc576040515f6001548060011c90600181168015610216575b602083108114610202578285529081156101e65750600114610190575b50819003601f01601f191681019067ffffffffffffffff82118183101761017c5760408290528190610178908261045f565b0390f35b634e487b7160e01b5f52604160045260245ffd5b60015f9081529091507fb10e2d527612073b26eecdfd717e6a320cf44b4afac2b0732d9fcbe2b7fa0cf65b8282106101d057506020915082010182610146565b60018160209254838588010152019101906101bb565b90506020925060ff191682840152151560051b82010182610146565b634e487b7160e01b5f52602260045260245ffd5b91607f1691610129565b346100cc5760203660031901126100cc576001600160a01b03610241610489565b165f526003602052602060405f2054604051908152f35b346100cc575f3660031901126100cc57602060405160128152f35b346100cc5760603660031901126100cc5760206100f8610291610489565b61029961049f565b6001600160a01b0382165f818152600486526040808220338352875290205460443593919084600182016102d0575b5050506104d6565b6102d9916104b5565b5f9182526004875260408083203384528852909120558580846102c8565b346100cc575f3660031901126100cc576020600254604051908152f35b346100cc5760403660031901126100cc5761032d610489565b335f8181526004602090815260408083206001600160a01b03909516808452948252918290206024359081905591519182527f8c5be1e5ebec7d5bd14f71427d1e84f3dd0314c0f7b2291e5b200ac8c7c3b92591a3602060405160018152f35b346100cc575f3660031901126100cc576040515f80548060011c90600181168015610455575b602083108114610202578285529081156101e657506001146104015750819003601f01601f191681019067ffffffffffffffff82118183101761017c5760408290528190610178908261045f565b5f8080529091507f290decd9548b62a8d60345a988386fc84ba6bc95484008f6362f93160ef3e5635b82821061043f57506020915082010182610146565b600181602092548385880101520191019061042a565b91607f16916103b3565b602060409281835280519182918282860152018484015e5f828201840152601f01601f1916010190565b600435906001600160a01b03821682036100cc57565b602435906001600160a01b03821682036100cc57565b919082039182116104c257565b634e487b7160e01b5f52601160045260245ffd5b60018060a01b031690815f52600360205260405f206104f68482546104b5565b90556001600160a01b03165f818152600360205260409020805491938281019283106104c2577fddf252ad1be2c89b69c2b068fc378daa952ba7f163c4a11628f55a4df523b3ef9260209255604051908152a360019056fea2646970667358221220043a75b72941054e33c9df0d5155c8a848df6831708216a265b060ab0a1ac5af64736f6c634300081a0033000000000000000000000000000000000000000000000000000000000000006000000000000000000000000000000000000000000000000000000000000000a000000000000000000000000000000000000000000000d3c21bcecceda1000000000000000000000000000000000000000000000000000000000000000000000c47656e657369732042657461000000000000000000000000000000000000000000000000000000000000000000000000000000000000000000000000000000054742455441000000000000000000000000000000000000000000000000000000",
        "nonce": "0x52",
        "chainId": "0xc4"
      },
      "additionalContracts": [],
      "isFixedGasLimit": false
    },
    {
      "hash": "0xbad8685a6f574ac539114b2d028985b10f3ebcda710c2f67ced3e91fb2aef09c",
      "transactionType": "CALL",
      "contractName": null,
      "contractAddress": "0x360e68faccca8ca495c1b759fd9eee466db9fb32",
      "function": "initialize((address,address,uint24,int24,address),uint160)",
      "arguments": [
        "(0x212eD261355021E04E8C18E2c32e1Dba5D215c7e, 0xEC083384525d8ECdd5C11e00E857d9094A2e7EE5, 8388608, 60, 0x174a2450b342042AAe7398545f04B199248E69c0)",
        "79228162514264337593543950336"
      ],
      "transaction": {
        "from": "0xd2d120eb7ced38551ccefb48021067d41d6542d3",
        "to": "0x360e68faccca8ca495c1b759fd9eee466db9fb32",
        "gas": "0x13d1a",
        "value": "0x0",
        "input": "0x6276cbbe000000000000000000000000212ed261355021e04e8c18e2c32e1dba5d215c7e000000000000000000000000ec083384525d8ecdd5c11e00e857d9094a2e7ee50000000000000000000000000000000000000000000000000000000000800000000000000000000000000000000000000000000000000000000000000000003c000000000000000000000000174a2450b342042aae7398545f04b199248e69c00000000000000000000000000000000000000001000000000000000000000000",
        "nonce": "0x53",
        "chainId": "0xc4"
      },
      "additionalContracts": [],
      "isFixedGasLimit": false
    },
    {
      "hash": "0x976ba0edbfcdece2444e3467b81e9913e08f9473ffcde55dd7edca18ef65065c",
      "transactionType": "CREATE",
      "contractName": "LiquidityHelper",
      "contractAddress": "0xa6ac1f5ae360e5558bff08136763f78b75980007",
      "function": null,
      "arguments": [
        "0x360E68faCcca8cA495c1B759Fd9EEe466db9FB32"
      ],
      "transaction": {
        "from": "0xd2d120eb7ced38551ccefb48021067d41d6542d3",
        "gas": "0xa9293",
        "value": "0x0",
        "input": "0x60a034608057601f61094138819003918201601f19168301916001600160401b03831184841017608457808492602094604052833981010312608057516001600160a01b03811681036080576080526040516108a890816100998239608051818181604f0152818160d30152818161046b0152818161064201526107e60152f35b5f80fd5b634e487b7160e01b5f52604160045260245ffdfe60806040526004361015610011575f80fd5b5f3560e01c806309c93b1e1461034757806391dd7346146100825763dc4c90d31461003a575f80fd5b3461007e575f36600319011261007e576040517f00000000000000000000000000000000000000000000000000000000000000006001600160a01b03168152602090f35b5f80fd5b3461007e57602036600319011261007e5760043567ffffffffffffffff811161007e573660238201121561007e57806004013567ffffffffffffffff811161007e5781019036602483011161007e577f00000000000000000000000000000000000000000000000000000000000000006001600160a01b03169133839003610318576101208282031261007e5760a0908290031261007e576040519161012783610549565b61013360248301610587565b835261014160448301610587565b9260208101938452606483013562ffffff8116810361007e57604082015261016b6084840161059b565b606082015260a48301356001600160a01b038116810361007e57608082015261019660c4840161059b565b916101a360e4850161059b565b6101248501356001600160a01b038116949085900361007e576040516080810181811067ffffffffffffffff82111761030457604094610164935f92875260020b8352602083019460020b85526101048684019901358952606083018281528651998a968795632d35e7ed60e11b8752610220600488018c6105d3565b5160020b60a48701525160020b60c48601525160e485015251610104840152610140610124840152816101448401525af19283156102f9575f936102c1575b50516102bd936102999291610284908390608087901d906001600160a01b0316610616565b51600f84900b906001600160a01b0316610616565b604051906020820152602081526102b1604082610565565b604051918291826105a9565b0390f35b919092506040823d6040116102f1575b816102de60409383610565565b8101031261007e579051916102bd61025f565b3d91506102d1565b6040513d5f823e3d90fd5b634e487b7160e01b5f52604160045260245ffd5b60405162461bcd60e51b81526020600482015260076024820152666f6e6c7920504d60c81b6044820152606490fd5b3461007e573660031901610120811261007e5760a01361007e5760405161036d81610549565b6004356001600160a01b038116810361007e5781526024356001600160a01b038116810361007e57602082015260443562ffffff8116810361007e5760408201526064358060020b810361007e5760608201526084356001600160a01b038116810361007e57608082015260a4358060020b80910361007e5760c435918260020b80930361007e57610104356001600160a01b0381169081900361007e57610466935f936104226040519460208601906105d3565b60c084015260e083015260e435610100830152610120820152610120815261044c61014082610565565b604051809381926348c8949160e01b8352600483016105a9565b0381837f00000000000000000000000000000000000000000000000000000000000000006001600160a01b03165af19081156102f9575f916104bf575b5060208180518101031261007e57602080910151604051908152f35b90503d805f833e6104d08183610565565b81019060208183031261007e5780519067ffffffffffffffff821161007e570181601f8201121561007e5780519067ffffffffffffffff82116103045760405192610525601f8401601f191660200185610565565b8284526020838301011161007e57815f9260208093018386015e83010152816104a3565b60a0810190811067ffffffffffffffff82111761030457604052565b90601f8019910116810190811067ffffffffffffffff82111761030457604052565b35906001600160a01b038216820361007e57565b35908160020b820361007e57565b602060409281835280519182918282860152018484015e5f828201840152601f01601f1916010190565b80516001600160a01b03908116835260208083015182169084015260408083015162ffffff169084015260608083015160020b9084015260809182015116910152565b600f82900b93925f92838612156107d357506f7fffffffffffffffffffffffffffffff1985146107bf577f00000000000000000000000000000000000000000000000000000000000000006001600160a01b031691823b156107b057604051632961046560e21b81526001600160a01b039091166004820181905290848160248183885af180156107b45761079b575b506040516323b872dd60e01b81526001600160a01b039092166004830152602482018390529483036001600160801b03166044820152936020908590606490829086905af193841561074c57829394610757575b50602090600460405180948193630476982d60e21b83525af1801561074c57610721575050565b602090813d8311610745575b6107378183610565565b810103126107425750565b80fd5b503d61072d565b6040513d84823e3d90fd5b9091506020813d602011610793575b8161077360209383610565565b8101031261078f5751801515810361078f5750819060206106fa565b8280fd5b3d9150610766565b6107a6858092610565565b6107b0575f6106a6565b8380fd5b6040513d87823e3d90fd5b634e487b7160e01b83526011600452602483fd5b93945f91929350136107e457505050565b7f00000000000000000000000000000000000000000000000000000000000000006001600160a01b0316803b1561007e57604051630b0d9c0960e01b81526001600160a01b0393841660048201529190921660248201526001600160801b039290921660448301525f908290606490829084905af180156102f9576108665750565b5f61087091610565565b56fea264697066735822122088bf4725baa7173b4f197333c55927c9cf717444ecf4961951dceb1e4c22e20c64736f6c634300081a0033000000000000000000000000360e68faccca8ca495c1b759fd9eee466db9fb32",
        "nonce": "0x54",
        "chainId": "0xc4"
      },
      "additionalContracts": [],
      "isFixedGasLimit": false
    },
    {
      "hash": "0x40ca5e777a11b5be8ea74f97c31de958239e86c3407f934652d65e77c70f3578",
      "transactionType": "CREATE",
      "contractName": "SwapRouter",
      "contractAddress": "0xc348b42efe8831845c5ce5b460bcdfe5c4a2f78d",
      "function": null,
      "arguments": [
        "0x360E68faCcca8cA495c1B759Fd9EEe466db9FB32"
      ],
      "transaction": {
        "from": "0xd2d120eb7ced38551ccefb48021067d41d6542d3",
        "gas": "0xbef8c",
        "value": "0x0",
        "input": "0x60a034608057601f610a7f38819003918201601f19168301916001600160401b03831184841017608457808492602094604052833981010312608057516001600160a01b03811681036080576080526040516109e690816100998239608051818181604f0152818160d3015281816105820152818161078001526109240152f35b5f80fd5b634e487b7160e01b5f52604160045260245ffdfe60806040526004361015610011575f80fd5b5f3560e01c80631e2817de1461033857806391dd7346146100825763dc4c90d31461003a575f80fd5b3461007e575f36600319011261007e576040517f00000000000000000000000000000000000000000000000000000000000000006001600160a01b03168152602090f35b5f80fd5b3461007e57602036600319011261007e5760043567ffffffffffffffff811161007e573660238201121561007e57806004013567ffffffffffffffff811161007e5781019036602483011161007e577f00000000000000000000000000000000000000000000000000000000000000006001600160a01b03169033829003610309576101208184031261007e5760a08184031261007e5760405161012581610695565b610131602483016106d3565b815261013f604483016106d3565b9360208201948552606483013562ffffff8116810361007e57604083015260848301358060020b810361007e57606083015260a48301356001600160a01b038116810361007e576080830152606090839003609f19011261007e57604051916101a783610679565b60c4810135801515810361007e57835260e48101356020840152610104810135906001600160a01b038216820361007e5761012491604085015201359160018060a01b03831680930361007e576102446101446020925f6040519788948593633cf3645360e21b855261021d600486018a610711565b8051151560a4860152602081015160c4860152604001516001600160a01b031660e4850152565b610120610104840152816101248401525af19283156102fe575f936102c6575b50516102c29361029e9291610289908390608087901d906001600160a01b0316610754565b51600f84900b906001600160a01b0316610754565b604051906020820152602081526102b66040826106b1565b604051918291826106e7565b0390f35b919092506020823d6020116102f6575b816102e3602093836106b1565b8101031261007e579051916102c2610264565b3d91506102d6565b6040513d5f823e3d90fd5b60405162461bcd60e51b81526020600482015260076024820152666f6e6c7920504d60c81b6044820152606490fd5b3461007e573660031901610100811261007e5760a01361007e5760405161035e81610695565b6004356001600160a01b038116810361007e578152602435906001600160a01b038216820361007e57602081019182526044359062ffffff8216820361007e5760408101918252606435928360020b840361007e57606082019384526084356001600160a01b038116810361007e576080830190815260603660a319011261007e57604051906103ed82610679565b60a435801515810361007e57825260c4356020830190815260e435916001600160a01b038316830361007e5761057d975f9761054b966040870195865260405161043681610679565b89815287602082015260403391015260018060a01b038951166001600160601b0360a01b8b5416178a5560018060a01b039051166001600160601b0360a01b60015416176001555190600154905160b81b62ffffff60b81b169162ffffff60a01b9060a01b169065ffffffffffff60a01b1916171760015560018060a01b039051166001600160601b0360a01b60025416176002558251151560ff8019600354169116176003555160045560018060a01b039051166001600160601b0360a01b6005541617600555336001600160601b0360a01b6006541617600655610523604051936020850190610711565b8051151560c0840152602081015160e0840152604001516001600160a01b0316610100830152565b336101208201526101208152610563610140826106b1565b604051809381926348c8949160e01b8352600483016106e7565b0381837f00000000000000000000000000000000000000000000000000000000000000006001600160a01b03165af19081156102fe575f916105db575b506020815191818082019384920101031261007e5760209051604051908152f35b90503d805f833e6105ec81836106b1565b81019060208183031261007e5780519067ffffffffffffffff821161007e570181601f8201121561007e5780519067ffffffffffffffff82116106655760405192610641601f8401601f1916602001856106b1565b8284526020838301011161007e57815f9260208093018386015e83010152816105ba565b634e487b7160e01b5f52604160045260245ffd5b6060810190811067ffffffffffffffff82111761066557604052565b60a0810190811067ffffffffffffffff82111761066557604052565b90601f8019910116810190811067ffffffffffffffff82111761066557604052565b35906001600160a01b038216820361007e57565b602060409281835280519182918282860152018484015e5f828201840152601f01601f1916010190565b80516001600160a01b03908116835260208083015182169084015260408083015162ffffff169084015260608083015160020b9084015260809182015116910152565b600f82900b93925f928386121561091157506f7fffffffffffffffffffffffffffffff1985146108fd577f00000000000000000000000000000000000000000000000000000000000000006001600160a01b031691823b156108ee57604051632961046560e21b81526001600160a01b039091166004820181905290848160248183885af180156108f2576108d9575b506040516323b872dd60e01b81526001600160a01b039092166004830152602482018390529483036001600160801b03166044820152936020908590606490829086905af193841561088a57829394610895575b50602090600460405180948193630476982d60e21b83525af1801561088a5761085f575050565b602090813d8311610883575b61087581836106b1565b810103126108805750565b80fd5b503d61086b565b6040513d84823e3d90fd5b9091506020813d6020116108d1575b816108b1602093836106b1565b810103126108cd575180151581036108cd575081906020610838565b8280fd5b3d91506108a4565b6108e48580926106b1565b6108ee575f6107e4565b8380fd5b6040513d87823e3d90fd5b634e487b7160e01b83526011600452602483fd5b93945f919293501361092257505050565b7f00000000000000000000000000000000000000000000000000000000000000006001600160a01b0316803b1561007e57604051630b0d9c0960e01b81526001600160a01b0393841660048201529190921660248201526001600160801b039290921660448301525f908290606490829084905af180156102fe576109a45750565b5f6109ae916106b1565b56fea2646970667358221220ad2cde09e3cc093c434f33a85c661827213554d30b4625a3586ef1c91f17354e64736f6c634300081a0033000000000000000000000000360e68faccca8ca495c1b759fd9eee466db9fb32",
        "nonce": "0x55",
        "chainId": "0xc4"
      },
      "additionalContracts": [],
      "isFixedGasLimit": false
    },
    {
      "hash": "0x50847aeed95390d40453be8823208de48beeff38f6e10076c48135443d911f41",
      "transactionType": "CALL",
      "contractName": "TestToken",
      "contractAddress": "0x212ed261355021e04e8c18e2c32e1dba5d215c7e",
      "function": "approve(address,uint256)",
      "arguments": [
        "0xa6Ac1f5Ae360e5558BfF08136763f78b75980007",
        "115792089237316195423570985008687907853269984665640564039457584007913129639935"
      ],
      "transaction": {
        "from": "0xd2d120eb7ced38551ccefb48021067d41d6542d3",
        "to": "0x212ed261355021e04e8c18e2c32e1dba5d215c7e",
        "gas": "0xf977",
        "value": "0x0",
        "input": "0x095ea7b3000000000000000000000000a6ac1f5ae360e5558bff08136763f78b75980007ffffffffffffffffffffffffffffffffffffffffffffffffffffffffffffffff",
        "nonce": "0x56",
        "chainId": "0xc4"
      },
      "additionalContracts": [],
      "isFixedGasLimit": false
    },
    {
      "hash": "0x0e0ccf7766d428d3a6f8d6b40c8f33bef537ebff8898cc6f36468d44e13af4c7",
      "transactionType": "CALL",
      "contractName": "TestToken",
      "contractAddress": "0xec083384525d8ecdd5c11e00e857d9094a2e7ee5",
      "function": "approve(address,uint256)",
      "arguments": [
        "0xa6Ac1f5Ae360e5558BfF08136763f78b75980007",
        "115792089237316195423570985008687907853269984665640564039457584007913129639935"
      ],
      "transaction": {
        "from": "0xd2d120eb7ced38551ccefb48021067d41d6542d3",
        "to": "0xec083384525d8ecdd5c11e00e857d9094a2e7ee5",
        "gas": "0xf977",
        "value": "0x0",
        "input": "0x095ea7b3000000000000000000000000a6ac1f5ae360e5558bff08136763f78b75980007ffffffffffffffffffffffffffffffffffffffffffffffffffffffffffffffff",
        "nonce": "0x57",
        "chainId": "0xc4"
      },
      "additionalContracts": [],
      "isFixedGasLimit": false
    },
    {
      "hash": "0xdf39d620a275a6e2540f4bbbb7c1f90923506297a375ad43623dedd58d57404c",
      "transactionType": "CALL",
      "contractName": "TestToken",
      "contractAddress": "0x212ed261355021e04e8c18e2c32e1dba5d215c7e",
      "function": "approve(address,uint256)",
      "arguments": [
        "0xC348b42EFe8831845c5ce5b460bCDFe5c4a2f78D",
        "115792089237316195423570985008687907853269984665640564039457584007913129639935"
      ],
      "transaction": {
        "from": "0xd2d120eb7ced38551ccefb48021067d41d6542d3",
        "to": "0x212ed261355021e04e8c18e2c32e1dba5d215c7e",
        "gas": "0x10837",
        "value": "0x0",
        "input": "0x095ea7b3000000000000000000000000c348b42efe8831845c5ce5b460bcdfe5c4a2f78dffffffffffffffffffffffffffffffffffffffffffffffffffffffffffffffff",
        "nonce": "0x58",
        "chainId": "0xc4"
      },
      "additionalContracts": [],
      "isFixedGasLimit": false
    },
    {
      "hash": "0x030d4c79eb48f5fba32796aa7bbdcf9564c5c778923dc86fc35a859d520d59db",
      "transactionType": "CALL",
      "contractName": "TestToken",
      "contractAddress": "0xec083384525d8ecdd5c11e00e857d9094a2e7ee5",
      "function": "approve(address,uint256)",
      "arguments": [
        "0xC348b42EFe8831845c5ce5b460bCDFe5c4a2f78D",
        "115792089237316195423570985008687907853269984665640564039457584007913129639935"
      ],
      "transaction": {
        "from": "0xd2d120eb7ced38551ccefb48021067d41d6542d3",
        "to": "0xec083384525d8ecdd5c11e00e857d9094a2e7ee5",
        "gas": "0x10837",
        "value": "0x0",
        "input": "0x095ea7b3000000000000000000000000c348b42efe8831845c5ce5b460bcdfe5c4a2f78dffffffffffffffffffffffffffffffffffffffffffffffffffffffffffffffff",
        "nonce": "0x59",
        "chainId": "0xc4"
      },
      "additionalContracts": [],
      "isFixedGasLimit": false
    },
    {
      "hash": "0x9d871a622ba459ad9db258b83b1c1ba553c12f180a8eddc997f028fd74c62454",
      "transactionType": "CALL",
      "contractName": "LiquidityHelper",
      "contractAddress": "0xa6ac1f5ae360e5558bff08136763f78b75980007",
      "function": "addLiquidity((address,address,uint24,int24,address),int24,int24,int256,address)",
      "arguments": [
        "(0x212eD261355021E04E8C18E2c32e1Dba5D215c7e, 0xEC083384525d8ECdd5C11e00E857d9094A2e7EE5, 8388608, 60, 0x174a2450b342042AAe7398545f04B199248E69c0)",
        "-6000",
        "6000",
        "100000000000000000000000",
        "0xd2D120eB7cEd38551cCeFb48021067d41D6542d3"
      ],
      "transaction": {
        "from": "0xd2d120eb7ced38551ccefb48021067d41d6542d3",
        "to": "0xa6ac1f5ae360e5558bff08136763f78b75980007",
        "gas": "0x6507d",
        "value": "0x0",
        "input": "0x09c93b1e000000000000000000000000212ed261355021e04e8c18e2c32e1dba5d215c7e000000000000000000000000ec083384525d8ecdd5c11e00e857d9094a2e7ee50000000000000000000000000000000000000000000000000000000000800000000000000000000000000000000000000000000000000000000000000000003c000000000000000000000000174a2450b342042aae7398545f04b199248e69c0ffffffffffffffffffffffffffffffffffffffffffffffffffffffffffffe890000000000000000000000000000000000000000000000000000000000000177000000000000000000000000000000000000000000000152d02c7e14af6800000000000000000000000000000d2d120eb7ced38551ccefb48021067d41d6542d3",
        "nonce": "0x5a",
        "chainId": "0xc4"
      },
      "additionalContracts": [],
      "isFixedGasLimit": false
    },
    {
      "hash": "0x32dcbd4287343a15fb761e2146500423ac4fc0dc1213b41a36ad939649458d10",
      "transactionType": "CALL",
      "contractName": "SwapRouter",
      "contractAddress": "0xc348b42efe8831845c5ce5b460bcdfe5c4a2f78d",
      "function": "swap((address,address,uint24,int24,address),(bool,int256,uint160))",
      "arguments": [
        "(0x212eD261355021E04E8C18E2c32e1Dba5D215c7e, 0xEC083384525d8ECdd5C11e00E857d9094A2e7EE5, 8388608, 60, 0x174a2450b342042AAe7398545f04B199248E69c0)",
        "(true, -1000000000000000000, 4295128740)"
      ],
      "transaction": {
        "from": "0xd2d120eb7ced38551ccefb48021067d41d6542d3",
        "to": "0xc348b42efe8831845c5ce5b460bcdfe5c4a2f78d",
        "gas": "0x9f65d",
        "value": "0x0",
        "input": "0x1e2817de000000000000000000000000212ed261355021e04e8c18e2c32e1dba5d215c7e000000000000000000000000ec083384525d8ecdd5c11e00e857d9094a2e7ee50000000000000000000000000000000000000000000000000000000000800000000000000000000000000000000000000000000000000000000000000000003c000000000000000000000000174a2450b342042aae7398545f04b199248e69c00000000000000000000000000000000000000000000000000000000000000001fffffffffffffffffffffffffffffffffffffffffffffffff21f494c589c000000000000000000000000000000000000000000000000000000000001000276a4",
        "nonce": "0x5b",
        "chainId": "0xc4"
      },
      "additionalContracts": [],
      "isFixedGasLimit": false
    },
    {
      "hash": "0x42a0479375fd612ac9d10ec0e1296b966f2a59bfb6ae7be49f9c818247537b97",
      "transactionType": "CALL",
      "contractName": "SwapRouter",
      "contractAddress": "0xc348b42efe8831845c5ce5b460bcdfe5c4a2f78d",
      "function": "swap((address,address,uint24,int24,address),(bool,int256,uint160))",
      "arguments": [
        "(0x212eD261355021E04E8C18E2c32e1Dba5D215c7e, 0xEC083384525d8ECdd5C11e00E857d9094A2e7EE5, 8388608, 60, 0x174a2450b342042AAe7398545f04B199248E69c0)",
        "(false, -1000000000000000000, 1461446703485210103287273052203988822378723970341)"
      ],
      "transaction": {
        "from": "0xd2d120eb7ced38551ccefb48021067d41d6542d3",
        "to": "0xc348b42efe8831845c5ce5b460bcdfe5c4a2f78d",
        "gas": "0x50a2b",
        "value": "0x0",
        "input": "0x1e2817de000000000000000000000000212ed261355021e04e8c18e2c32e1dba5d215c7e000000000000000000000000ec083384525d8ecdd5c11e00e857d9094a2e7ee50000000000000000000000000000000000000000000000000000000000800000000000000000000000000000000000000000000000000000000000000000003c000000000000000000000000174a2450b342042aae7398545f04b199248e69c00000000000000000000000000000000000000000000000000000000000000000fffffffffffffffffffffffffffffffffffffffffffffffff21f494c589c0000000000000000000000000000fffd8963efd1fc6a506488495d951d5263988d25",
        "nonce": "0x5c",
        "chainId": "0xc4"
      },
      "additionalContracts": [],
      "isFixedGasLimit": false
    },
    {
      "hash": "0x410e74a10da40f2a6a2d97ae71eb80bb3a1a0fed45dd7d486c47c1b3aebb626c",
      "transactionType": "CALL",
      "contractName": "SwapRouter",
      "contractAddress": "0xc348b42efe8831845c5ce5b460bcdfe5c4a2f78d",
      "function": "swap((address,address,uint24,int24,address),(bool,int256,uint160))",
      "arguments": [
        "(0x212eD261355021E04E8C18E2c32e1Dba5D215c7e, 0xEC083384525d8ECdd5C11e00E857d9094A2e7EE5, 8388608, 60, 0x174a2450b342042AAe7398545f04B199248E69c0)",
        "(true, -10000000000000000000, 4295128740)"
      ],
      "transaction": {
        "from": "0xd2d120eb7ced38551ccefb48021067d41d6542d3",
        "to": "0xc348b42efe8831845c5ce5b460bcdfe5c4a2f78d",
        "gas": "0x50b03",
        "value": "0x0",
        "input": "0x1e2817de000000000000000000000000212ed261355021e04e8c18e2c32e1dba5d215c7e000000000000000000000000ec083384525d8ecdd5c11e00e857d9094a2e7ee50000000000000000000000000000000000000000000000000000000000800000000000000000000000000000000000000000000000000000000000000000003c000000000000000000000000174a2450b342042aae7398545f04b199248e69c00000000000000000000000000000000000000000000000000000000000000001ffffffffffffffffffffffffffffffffffffffffffffffff7538dcfb7618000000000000000000000000000000000000000000000000000000000001000276a4",
        "nonce": "0x5d",
        "chainId": "0xc4"
      },
      "additionalContracts": [],
      "isFixedGasLimit": false
    }
  ],
  "receipts": [
    {
      "status": "0x1",
      "cumulativeGasUsed": "0x119e92",
      "logs": [
        {
          "address": "0xec083384525d8ecdd5c11e00e857d9094a2e7ee5",
          "topics": [
            "0xddf252ad1be2c89b69c2b068fc378daa952ba7f163c4a11628f55a4df523b3ef",
            "0x0000000000000000000000000000000000000000000000000000000000000000",
            "0x000000000000000000000000d2d120eb7ced38551ccefb48021067d41d6542d3"
          ],
          "data": "0x00000000000000000000000000000000000000000000d3c21bcecceda1000000",
          "blockHash": "0x64d7fb1ac51e1a9c0dc2cc55cc29f72fb42d94a1e0633f4fae40788e998bae62",
          "blockNumber": "0x35e6a8d",
          "blockTimestamp": "0x69d0c019",
          "transactionHash": "0xffe34562b809f09d197c84d5a8f7a4860c11c9a4557f75d2aefccab35dbca44e",
          "transactionIndex": "0x3",
          "logIndex": "0xb",
          "removed": false
        }
      ],
      "logsBloom": "0x00000000000000000000000000000000000000000020000000000000000000000000000000000000000000000000000400000000000000000000000000000000000000000000000000000008000000000000000000000000000000000000000000000000020000000000000000000800000000000000000000000010000000000000000000000000000000000000000000000000000000000000000000000000000000000000000000000000000000000010000000000000000000000000000000000082000000000000000000000000000100000000000000000000000020004000000000000000000000000000000000000000000000000000000000000000",
      "type": "0x2",
      "transactionHash": "0xffe34562b809f09d197c84d5a8f7a4860c11c9a4557f75d2aefccab35dbca44e",
      "transactionIndex": "0x3",
      "blockHash": "0x64d7fb1ac51e1a9c0dc2cc55cc29f72fb42d94a1e0633f4fae40788e998bae62",
      "blockNumber": "0x35e6a8d",
      "gasUsed": "0x71f25",
      "effectiveGasPrice": "0x1312d01",
      "blobGasUsed": "0x94570",
      "from": "0xd2d120eb7ced38551ccefb48021067d41d6542d3",
      "to": null,
      "contractAddress": "0xec083384525d8ecdd5c11e00e857d9094a2e7ee5",
      "daFootprintGasScalar": "0x190",
      "l1BaseFeeScalar": "0x0",
      "l1BlobBaseFee": "0x83f2e9",
      "l1BlobBaseFeeScalar": "0x0",
      "l1Fee": "0x0",
      "l1GasPrice": "0xae919d7",
      "l1GasUsed": "0x5ef2"
    },
    {
      "status": "0x1",
      "cumulativeGasUsed": "0x18bd9f",
      "logs": [
        {
          "address": "0x212ed261355021e04e8c18e2c32e1dba5d215c7e",
          "topics": [
            "0xddf252ad1be2c89b69c2b068fc378daa952ba7f163c4a11628f55a4df523b3ef",
            "0x0000000000000000000000000000000000000000000000000000000000000000",
            "0x000000000000000000000000d2d120eb7ced38551ccefb48021067d41d6542d3"
          ],
          "data": "0x00000000000000000000000000000000000000000000d3c21bcecceda1000000",
          "blockHash": "0x64d7fb1ac51e1a9c0dc2cc55cc29f72fb42d94a1e0633f4fae40788e998bae62",
          "blockNumber": "0x35e6a8d",
          "blockTimestamp": "0x69d0c019",
          "transactionHash": "0x747dbd430b62b0efebb4ebfea013357200444cfbfb68fde2aa0d559c8e5a4f46",
          "transactionIndex": "0x4",
          "logIndex": "0xc",
          "removed": false
        }
      ],
      "logsBloom": "0x00000000000000000000000000000000000000000000000000000000000000000000000000000000400000000000000000000000000000000000000000000000000000000000000000000048000000000000000000000000000000000000000000000000020000000000000000000800000000000000000000000010000000000000000100000000000000000000000000000000000000000000000000000000000000000000000000000000000000000010000000000000000000000000000000000002000000000000000000000000000100000000000000000000000020004000000000000000000000000000000000000000000000000000000000000000",
      "type": "0x2",
      "transactionHash": "0x747dbd430b62b0efebb4ebfea013357200444cfbfb68fde2aa0d559c8e5a4f46",
      "transactionIndex": "0x4",
      "blockHash": "0x64d7fb1ac51e1a9c0dc2cc55cc29f72fb42d94a1e0633f4fae40788e998bae62",
      "blockNumber": "0x35e6a8d",
      "gasUsed": "0x71f0d",
      "effectiveGasPrice": "0x1312d01",
      "blobGasUsed": "0x94250",
      "from": "0xd2d120eb7ced38551ccefb48021067d41d6542d3",
      "to": null,
      "contractAddress": "0x212ed261355021e04e8c18e2c32e1dba5d215c7e",
      "daFootprintGasScalar": "0x190",
      "l1BaseFeeScalar": "0x0",
      "l1BlobBaseFee": "0x83f2e9",
      "l1BlobBaseFeeScalar": "0x0",
      "l1Fee": "0x0",
      "l1GasPrice": "0xae919d7",
      "l1GasUsed": "0x5ed7"
    },
    {
      "status": "0x1",
      "cumulativeGasUsed": "0x199672",
      "logs": [
        {
          "address": "0x360e68faccca8ca495c1b759fd9eee466db9fb32",
          "topics": [
            "0xdd466e674ea557f56295e2d0218a125ea4b4f0f6f3307b95f85e6110838d6438",
            "0x59dde6b4745ff07f7da3bc64e78357d41caca6456848bd4ec29c6aaafae8af79",
            "0x000000000000000000000000212ed261355021e04e8c18e2c32e1dba5d215c7e",
            "0x000000000000000000000000ec083384525d8ecdd5c11e00e857d9094a2e7ee5"
          ],
          "data": "0x0000000000000000000000000000000000000000000000000000000000800000000000000000000000000000000000000000000000000000000000000000003c000000000000000000000000174a2450b342042aae7398545f04b199248e69c000000000000000000000000000000000000000010000000000000000000000000000000000000000000000000000000000000000000000000000000000000000",
          "blockHash": "0x64d7fb1ac51e1a9c0dc2cc55cc29f72fb42d94a1e0633f4fae40788e998bae62",
          "blockNumber": "0x35e6a8d",
          "blockTimestamp": "0x69d0c019",
          "transactionHash": "0x030d4c79eb48f5fba32796aa7bbdcf9564c5c778923dc86fc35a859d520d59db",
          "transactionIndex": "0x5",
          "logIndex": "0xd",
          "removed": false
        }
      ],
      "logsBloom": "0x00000002000000000000000000000000000000000000000000000000000000000000000000000000000008000000400000000000000000000000000000000000000000010000000001008000000000000000000000000000000000000000000000000800000000000000000000000000000000000000000000000000000000000000000000000008000000000000000000000001000002000000000000200000000000000000000000000000000000000000000000000000000000200000000000000000000000000000000000000000000004000000000000000000000000000000000000000000000000000008000000000000000000000000000000000008",
      "type": "0x2",
      "transactionHash": "0x030d4c79eb48f5fba32796aa7bbdcf9564c5c778923dc86fc35a859d520d59db",
      "transactionIndex": "0x5",
      "blockHash": "0x64d7fb1ac51e1a9c0dc2cc55cc29f72fb42d94a1e0633f4fae40788e998bae62",
      "blockNumber": "0x35e6a8d",
      "gasUsed": "0xd8d3",
      "effectiveGasPrice": "0x1312d01",
      "blobGasUsed": "0xd7a0",
      "from": "0xd2d120eb7ced38551ccefb48021067d41d6542d3",
      "to": "0x360e68faccca8ca495c1b759fd9eee466db9fb32",
      "contractAddress": null,
      "daFootprintGasScalar": "0x190",
      "l1BaseFeeScalar": "0x0",
      "l1BlobBaseFee": "0x83f2e9",
      "l1BlobBaseFeeScalar": "0x0",
      "l1Fee": "0x0",
      "l1GasPrice": "0xae919d7",
      "l1GasUsed": "0x8ae"
    },
    {
      "status": "0x1",
      "cumulativeGasUsed": "0x21b86d",
      "logs": [],
      "logsBloom": "0x00000000000000000000000000000000000000000000000000000000000000000000000000000000000000000000000000000000000000000000000000000000000000000000000000000000000000000000000000000000000000000000000000000000000000000000000000000000000000000000000000000000000000000000000000000000000000000000000000000000000000000000000000000000000000000000000000000000000000000000000000000000000000000000000000000000000000000000000000000000000000000000000000000000000000000000000000000000000000000000000000000000000000000000000000000000",
      "type": "0x2",
      "transactionHash": "0x976ba0edbfcdece2444e3467b81e9913e08f9473ffcde55dd7edca18ef65065c",
      "transactionIndex": "0x6",
      "blockHash": "0x64d7fb1ac51e1a9c0dc2cc55cc29f72fb42d94a1e0633f4fae40788e998bae62",
      "blockNumber": "0x35e6a8d",
      "gasUsed": "0x821fb",
      "effectiveGasPrice": "0x1312d01",
      "blobGasUsed": "0x91820",
      "from": "0xd2d120eb7ced38551ccefb48021067d41d6542d3",
      "to": null,
      "contractAddress": "0xa6ac1f5ae360e5558bff08136763f78b75980007",
      "daFootprintGasScalar": "0x190",
      "l1BaseFeeScalar": "0x0",
      "l1BlobBaseFee": "0x83f2e9",
      "l1BlobBaseFeeScalar": "0x0",
      "l1Fee": "0x0",
      "l1GasPrice": "0xae919d7",
      "l1GasUsed": "0x5d2b"
    },
    {
      "status": "0x1",
      "cumulativeGasUsed": "0x2ae6d9",
      "logs": [],
      "logsBloom": "0x00000000000000000000000000000000000000000000000000000000000000000000000000000000000000000000000000000000000000000000000000000000000000000000000000000000000000000000000000000000000000000000000000000000000000000000000000000000000000000000000000000000000000000000000000000000000000000000000000000000000000000000000000000000000000000000000000000000000000000000000000000000000000000000000000000000000000000000000000000000000000000000000000000000000000000000000000000000000000000000000000000000000000000000000000000000",
      "type": "0x2",
      "transactionHash": "0x0e0ccf7766d428d3a6f8d6b40c8f33bef537ebff8898cc6f36468d44e13af4c7",
      "transactionIndex": "0x7",
      "blockHash": "0x64d7fb1ac51e1a9c0dc2cc55cc29f72fb42d94a1e0633f4fae40788e998bae62",
      "blockNumber": "0x35e6a8d",
      "gasUsed": "0x92e6c",
      "effectiveGasPrice": "0x1312d01",
      "blobGasUsed": "0xa13b0",
      "from": "0xd2d120eb7ced38551ccefb48021067d41d6542d3",
      "to": null,
      "contractAddress": "0xc348b42efe8831845c5ce5b460bcdfe5c4a2f78d",
      "daFootprintGasScalar": "0x190",
      "l1BaseFeeScalar": "0x0",
      "l1BlobBaseFee": "0x83f2e9",
      "l1BlobBaseFeeScalar": "0x0",
      "l1Fee": "0x0",
      "l1GasPrice": "0xae919d7",
      "l1GasUsed": "0x6735"
    },
    {
      "status": "0x1",
      "cumulativeGasUsed": "0x2b9b76",
      "logs": [
        {
          "address": "0x212ed261355021e04e8c18e2c32e1dba5d215c7e",
          "topics": [
            "0x8c5be1e5ebec7d5bd14f71427d1e84f3dd0314c0f7b2291e5b200ac8c7c3b925",
            "0x000000000000000000000000d2d120eb7ced38551ccefb48021067d41d6542d3",
            "0x000000000000000000000000a6ac1f5ae360e5558bff08136763f78b75980007"
          ],
          "data": "0xffffffffffffffffffffffffffffffffffffffffffffffffffffffffffffffff",
          "blockHash": "0x64d7fb1ac51e1a9c0dc2cc55cc29f72fb42d94a1e0633f4fae40788e998bae62",
          "blockNumber": "0x35e6a8d",
          "blockTimestamp": "0x69d0c019",
          "transactionHash": "0x40ca5e777a11b5be8ea74f97c31de958239e86c3407f934652d65e77c70f3578",
          "transactionIndex": "0x8",
          "logIndex": "0xe",
          "removed": false
        }
      ],
      "logsBloom": "0x00000010000000000000000000000000000000000000000000000000000000000000000000000000400000000000000000000000000000000000000000200000000000000000000000000040000000000000000000000000000000000000000000000000000000000000000000000000000000000000000000000000000000000000000100000000000000000000000000000000000000000000000000000000020000000000000000000000000000000010000000000000000000000000000000000000000000000000000100000000000100000000000000000000000000004012000000000000000000000000000000000000000000000000000000000000",
      "type": "0x2",
      "transactionHash": "0x40ca5e777a11b5be8ea74f97c31de958239e86c3407f934652d65e77c70f3578",
      "transactionIndex": "0x8",
      "blockHash": "0x64d7fb1ac51e1a9c0dc2cc55cc29f72fb42d94a1e0633f4fae40788e998bae62",
      "blockNumber": "0x35e6a8d",
      "gasUsed": "0xb49d",
      "effectiveGasPrice": "0x1312d01",
      "blobGasUsed": "0x9c40",
      "from": "0xd2d120eb7ced38551ccefb48021067d41d6542d3",
      "to": "0x212ed261355021e04e8c18e2c32e1dba5d215c7e",
      "contractAddress": null,
      "daFootprintGasScalar": "0x190",
      "l1BaseFeeScalar": "0x0",
      "l1BlobBaseFee": "0x83f2e9",
      "l1BlobBaseFeeScalar": "0x0",
      "l1Fee": "0x0",
      "l1GasPrice": "0xae919d7",
      "l1GasUsed": "0x640"
    },
    {
      "status": "0x1",
      "cumulativeGasUsed": "0x31e7d8",
      "logs": [
        {
          "address": "0xec083384525d8ecdd5c11e00e857d9094a2e7ee5",
          "topics": [
            "0x8c5be1e5ebec7d5bd14f71427d1e84f3dd0314c0f7b2291e5b200ac8c7c3b925",
            "0x000000000000000000000000d2d120eb7ced38551ccefb48021067d41d6542d3",
            "0x000000000000000000000000a6ac1f5ae360e5558bff08136763f78b75980007"
          ],
          "data": "0xffffffffffffffffffffffffffffffffffffffffffffffffffffffffffffffff",
          "blockHash": "0x64d7fb1ac51e1a9c0dc2cc55cc29f72fb42d94a1e0633f4fae40788e998bae62",
          "blockNumber": "0x35e6a8d",
          "blockTimestamp": "0x69d0c019",
          "transactionHash": "0x410e74a10da40f2a6a2d97ae71eb80bb3a1a0fed45dd7d486c47c1b3aebb626c",
          "transactionIndex": "0xb",
          "logIndex": "0xf",
          "removed": false
        }
      ],
      "logsBloom": "0x00000010000000000000000000000000000000000020000000000000000000000000000000000000000000000000000400000000000000000000000000200000000000000000000000000000000000000000000000000000000000000000000000000000000000000000000000000000000000000000000000000000000000000000000000000000000000000000000000000000000000000000000000000000020000000000000000000000000000000010000000000000000000000000000000000080000000000000000100000000000100000000000000000000000000004012000000000000000000000000000000000000000000000000000000000000",
      "type": "0x2",
      "transactionHash": "0x410e74a10da40f2a6a2d97ae71eb80bb3a1a0fed45dd7d486c47c1b3aebb626c",
      "transactionIndex": "0xb",
      "blockHash": "0x64d7fb1ac51e1a9c0dc2cc55cc29f72fb42d94a1e0633f4fae40788e998bae62",
      "blockNumber": "0x35e6a8d",
      "gasUsed": "0xb49d",
      "effectiveGasPrice": "0x1312d01",
      "blobGasUsed": "0x9c40",
      "from": "0xd2d120eb7ced38551ccefb48021067d41d6542d3",
      "to": "0xec083384525d8ecdd5c11e00e857d9094a2e7ee5",
      "contractAddress": null,
      "daFootprintGasScalar": "0x190",
      "l1BaseFeeScalar": "0x0",
      "l1BlobBaseFee": "0x83f2e9",
      "l1BlobBaseFeeScalar": "0x0",
      "l1Fee": "0x0",
      "l1GasPrice": "0xae919d7",
      "l1GasUsed": "0x640"
    },
    {
      "status": "0x1",
      "cumulativeGasUsed": "0x329c81",
      "logs": [
        {
          "address": "0x212ed261355021e04e8c18e2c32e1dba5d215c7e",
          "topics": [
            "0x8c5be1e5ebec7d5bd14f71427d1e84f3dd0314c0f7b2291e5b200ac8c7c3b925",
            "0x000000000000000000000000d2d120eb7ced38551ccefb48021067d41d6542d3",
            "0x000000000000000000000000c348b42efe8831845c5ce5b460bcdfe5c4a2f78d"
          ],
          "data": "0xffffffffffffffffffffffffffffffffffffffffffffffffffffffffffffffff",
          "blockHash": "0x64d7fb1ac51e1a9c0dc2cc55cc29f72fb42d94a1e0633f4fae40788e998bae62",
          "blockNumber": "0x35e6a8d",
          "blockTimestamp": "0x69d0c019",
          "transactionHash": "0x42a0479375fd612ac9d10ec0e1296b966f2a59bfb6ae7be49f9c818247537b97",
          "transactionIndex": "0xc",
          "logIndex": "0x10",
          "removed": false
        }
      ],
      "logsBloom": "0x00000000000000000000000000000000000000000000000000000000000000000000000000000000400000000000000000000000000000000000000000200000000000000000000000000040000000000000000000000000000000000000000000000000000000000000000000000000000000000000000000000000000000000000000100000000000000000000000000000100000000000000000000000000020000000000000000000000000000000010000000000020000000000000000000000000000000000000000000000000000100000000000000000000000000004010000000000000000100000000000000000000000000000000000000000000",
      "type": "0x2",
      "transactionHash": "0x42a0479375fd612ac9d10ec0e1296b966f2a59bfb6ae7be49f9c818247537b97",
      "transactionIndex": "0xc",
      "blockHash": "0x64d7fb1ac51e1a9c0dc2cc55cc29f72fb42d94a1e0633f4fae40788e998bae62",
      "blockNumber": "0x35e6a8d",
      "gasUsed": "0xb4a9",
      "effectiveGasPrice": "0x1312d01",
      "blobGasUsed": "0x9c40",
      "from": "0xd2d120eb7ced38551ccefb48021067d41d6542d3",
      "to": "0x212ed261355021e04e8c18e2c32e1dba5d215c7e",
      "contractAddress": null,
      "daFootprintGasScalar": "0x190",
      "l1BaseFeeScalar": "0x0",
      "l1BlobBaseFee": "0x83f2e9",
      "l1BlobBaseFeeScalar": "0x0",
      "l1Fee": "0x0",
      "l1GasPrice": "0xae919d7",
      "l1GasUsed": "0x640"
    },
    {
      "status": "0x1",
      "cumulativeGasUsed": "0x33512a",
      "logs": [
        {
          "address": "0xec083384525d8ecdd5c11e00e857d9094a2e7ee5",
          "topics": [
            "0x8c5be1e5ebec7d5bd14f71427d1e84f3dd0314c0f7b2291e5b200ac8c7c3b925",
            "0x000000000000000000000000d2d120eb7ced38551ccefb48021067d41d6542d3",
            "0x000000000000000000000000c348b42efe8831845c5ce5b460bcdfe5c4a2f78d"
          ],
          "data": "0xffffffffffffffffffffffffffffffffffffffffffffffffffffffffffffffff",
          "blockHash": "0x64d7fb1ac51e1a9c0dc2cc55cc29f72fb42d94a1e0633f4fae40788e998bae62",
          "blockNumber": "0x35e6a8d",
          "blockTimestamp": "0x69d0c019",
          "transactionHash": "0xbad8685a6f574ac539114b2d028985b10f3ebcda710c2f67ced3e91fb2aef09c",
          "transactionIndex": "0xd",
          "logIndex": "0x11",
          "removed": false
        }
      ],
      "logsBloom": "0x00000000000000000000000000000000000000000020000000000000000000000000000000000000000000000000000400000000000000000000000000200000000000000000000000000000000000000000000000000000000000000000000000000000000000000000000000000000000000000000000000000000000000000000000000000000000000000000000000000100000000000000000000000000020000000000000000000000000000000010000000000020000000000000000000000080000000000000000000000000000100000000000000000000000000004010000000000000000100000000000000000000000000000000000000000000",
      "type": "0x2",
      "transactionHash": "0xbad8685a6f574ac539114b2d028985b10f3ebcda710c2f67ced3e91fb2aef09c",
      "transactionIndex": "0xd",
      "blockHash": "0x64d7fb1ac51e1a9c0dc2cc55cc29f72fb42d94a1e0633f4fae40788e998bae62",
      "blockNumber": "0x35e6a8d",
      "gasUsed": "0xb4a9",
      "effectiveGasPrice": "0x1312d01",
      "blobGasUsed": "0x9c40",
      "from": "0xd2d120eb7ced38551ccefb48021067d41d6542d3",
      "to": "0xec083384525d8ecdd5c11e00e857d9094a2e7ee5",
      "contractAddress": null,
      "daFootprintGasScalar": "0x190",
      "l1BaseFeeScalar": "0x0",
      "l1BlobBaseFee": "0x83f2e9",
      "l1BlobBaseFeeScalar": "0x0",
      "l1Fee": "0x0",
      "l1GasPrice": "0xae919d7",
      "l1GasUsed": "0x640"
    },
    {
      "status": "0x1",
      "cumulativeGasUsed": "0x37a275",
      "logs": [
        {
          "address": "0x360e68faccca8ca495c1b759fd9eee466db9fb32",
          "topics": [
            "0xf208f4912782fd25c7f114ca3723a2d5dd6f3bcc3ac8db5af63baa85f711d5ec",
            "0x59dde6b4745ff07f7da3bc64e78357d41caca6456848bd4ec29c6aaafae8af79",
            "0x000000000000000000000000a6ac1f5ae360e5558bff08136763f78b75980007"
          ],
          "data": "0xffffffffffffffffffffffffffffffffffffffffffffffffffffffffffffe890000000000000000000000000000000000000000000000000000000000000177000000000000000000000000000000000000000000000152d02c7e14af68000000000000000000000000000000000000000000000000000000000000000000000",
          "blockHash": "0x64d7fb1ac51e1a9c0dc2cc55cc29f72fb42d94a1e0633f4fae40788e998bae62",
          "blockNumber": "0x35e6a8d",
          "blockTimestamp": "0x69d0c019",
          "transactionHash": "0xdf39d620a275a6e2540f4bbbb7c1f90923506297a375ad43623dedd58d57404c",
          "transactionIndex": "0xe",
          "logIndex": "0x12",
          "removed": false
        },
        {
          "address": "0x212ed261355021e04e8c18e2c32e1dba5d215c7e",
          "topics": [
            "0xddf252ad1be2c89b69c2b068fc378daa952ba7f163c4a11628f55a4df523b3ef",
            "0x000000000000000000000000d2d120eb7ced38551ccefb48021067d41d6542d3",
            "0x000000000000000000000000360e68faccca8ca495c1b759fd9eee466db9fb32"
          ],
          "data": "0x00000000000000000000000000000000000000000000057cf78da1075ec48ca7",
          "blockHash": "0x64d7fb1ac51e1a9c0dc2cc55cc29f72fb42d94a1e0633f4fae40788e998bae62",
          "blockNumber": "0x35e6a8d",
          "blockTimestamp": "0x69d0c019",
          "transactionHash": "0xdf39d620a275a6e2540f4bbbb7c1f90923506297a375ad43623dedd58d57404c",
          "transactionIndex": "0xe",
          "logIndex": "0x13",
          "removed": false
        },
        {
          "address": "0xec083384525d8ecdd5c11e00e857d9094a2e7ee5",
          "topics": [
            "0xddf252ad1be2c89b69c2b068fc378daa952ba7f163c4a11628f55a4df523b3ef",
            "0x000000000000000000000000d2d120eb7ced38551ccefb48021067d41d6542d3",
            "0x000000000000000000000000360e68faccca8ca495c1b759fd9eee466db9fb32"
          ],
          "data": "0x00000000000000000000000000000000000000000000057cf78da1075ec48ca7",
          "blockHash": "0x64d7fb1ac51e1a9c0dc2cc55cc29f72fb42d94a1e0633f4fae40788e998bae62",
          "blockNumber": "0x35e6a8d",
          "blockTimestamp": "0x69d0c019",
          "transactionHash": "0xdf39d620a275a6e2540f4bbbb7c1f90923506297a375ad43623dedd58d57404c",
          "transactionIndex": "0xe",
          "logIndex": "0x14",
          "removed": false
        }
      ],
      "logsBloom": "0x00000012000000000000000000000000000000000020000000000000000000000000000000000000400008000800400400000000000000000000000000000000000000000000000001000048000000000000000000000000000000000000000000000000000000000000000000000000000000000000000000000010000000000000000101000000000000000000000000000000000000000000000000000000000004000000000000000000000000000010000001000000000000000000000000000082000000000400000100000000000104000000000000000000000000004002000000000000000000000000000004000000000000000000000000000008",
      "type": "0x2",
      "transactionHash": "0xdf39d620a275a6e2540f4bbbb7c1f90923506297a375ad43623dedd58d57404c",
      "transactionIndex": "0xe",
      "blockHash": "0x64d7fb1ac51e1a9c0dc2cc55cc29f72fb42d94a1e0633f4fae40788e998bae62",
      "blockNumber": "0x35e6a8d",
      "gasUsed": "0x4514b",
      "effectiveGasPrice": "0x1312d01",
      "blobGasUsed": "0x10cc0",
      "from": "0xd2d120eb7ced38551ccefb48021067d41d6542d3",
      "to": "0xa6ac1f5ae360e5558bff08136763f78b75980007",
      "contractAddress": null,
      "daFootprintGasScalar": "0x190",
      "l1BaseFeeScalar": "0x0",
      "l1BlobBaseFee": "0x83f2e9",
      "l1BlobBaseFeeScalar": "0x0",
      "l1Fee": "0x0",
      "l1GasPrice": "0xae919d7",
      "l1GasUsed": "0xac6"
    },
    {
      "status": "0x1",
      "cumulativeGasUsed": "0x3ed8e1",
      "logs": [
        {
          "address": "0x277ee5801d5d1e5126a76c986c96923ab5ec54ed",
          "topics": [
            "0xbc2c050176af0f1aa90d03264c2fa7759f0c00cac6d105fdf72419d989c74756"
          ],
          "data": "0x000000000000000000000000000000000000000000000000000000000000271000000000000000000000000000000000000000000000000000000000000000000000000000000000000000000000000000000000000000000de0b6b3a7640000",
          "blockHash": "0x64d7fb1ac51e1a9c0dc2cc55cc29f72fb42d94a1e0633f4fae40788e998bae62",
          "blockNumber": "0x35e6a8d",
          "blockTimestamp": "0x69d0c019",
          "transactionHash": "0x9d871a622ba459ad9db258b83b1c1ba553c12f180a8eddc997f028fd74c62454",
          "transactionIndex": "0xf",
          "logIndex": "0x15",
          "removed": false
        },
        {
          "address": "0xc5e851fec9188dd4f6ccb2ebc134b33210d4ac78",
          "topics": [
            "0x9d1f0c448150fafee9ee6e790c1f25ed2f9f658904558043edd1976f56828362",
            "0x0000000000000000000000000000000000000000000000000000000000000000"
          ],
          "data": "0x000000000000000000000000000000000000000000000000000000000000271000000000000000000000000000000000000000000000000000000000000000000000000000000000000000000000000000000000000000000de0b6b3a7640000",
          "blockHash": "0x64d7fb1ac51e1a9c0dc2cc55cc29f72fb42d94a1e0633f4fae40788e998bae62",
          "blockNumber": "0x35e6a8d",
          "blockTimestamp": "0x69d0c019",
          "transactionHash": "0x9d871a622ba459ad9db258b83b1c1ba553c12f180a8eddc997f028fd74c62454",
          "transactionIndex": "0xf",
          "logIndex": "0x16",
          "removed": false
        },
        {
          "address": "0x360e68faccca8ca495c1b759fd9eee466db9fb32",
          "topics": [
            "0x40e9cecb9f5f1f1c5b9c97dec2917b7ee92e57ba5563708daca94dd84ad7112f",
            "0x59dde6b4745ff07f7da3bc64e78357d41caca6456848bd4ec29c6aaafae8af79",
            "0x000000000000000000000000c348b42efe8831845c5ce5b460bcdfe5c4a2f78d"
          ],
          "data": "0xfffffffffffffffffffffffffffffffffffffffffffffffff21f494c589c00000000000000000000000000000000000000000000000000000dbd26d7444bf14b0000000000000000000000000000000000000000ffff59e83ea5a7636c53257000000000000000000000000000000000000000000000152d02c7e14af6800000ffffffffffffffffffffffffffffffffffffffffffffffffffffffffffffffff0000000000000000000000000000000000000000000000000000000000002710",
          "blockHash": "0x64d7fb1ac51e1a9c0dc2cc55cc29f72fb42d94a1e0633f4fae40788e998bae62",
          "blockNumber": "0x35e6a8d",
          "blockTimestamp": "0x69d0c019",
          "transactionHash": "0x9d871a622ba459ad9db258b83b1c1ba553c12f180a8eddc997f028fd74c62454",
          "transactionIndex": "0xf",
          "logIndex": "0x17",
          "removed": false
        },
        {
          "address": "0x212ed261355021e04e8c18e2c32e1dba5d215c7e",
          "topics": [
            "0xddf252ad1be2c89b69c2b068fc378daa952ba7f163c4a11628f55a4df523b3ef",
            "0x000000000000000000000000d2d120eb7ced38551ccefb48021067d41d6542d3",
            "0x000000000000000000000000360e68faccca8ca495c1b759fd9eee466db9fb32"
          ],
          "data": "0x0000000000000000000000000000000000000000000000000de0b6b3a7640000",
          "blockHash": "0x64d7fb1ac51e1a9c0dc2cc55cc29f72fb42d94a1e0633f4fae40788e998bae62",
          "blockNumber": "0x35e6a8d",
          "blockTimestamp": "0x69d0c019",
          "transactionHash": "0x9d871a622ba459ad9db258b83b1c1ba553c12f180a8eddc997f028fd74c62454",
          "transactionIndex": "0xf",
          "logIndex": "0x18",
          "removed": false
        },
        {
          "address": "0xec083384525d8ecdd5c11e00e857d9094a2e7ee5",
          "topics": [
            "0xddf252ad1be2c89b69c2b068fc378daa952ba7f163c4a11628f55a4df523b3ef",
            "0x000000000000000000000000360e68faccca8ca495c1b759fd9eee466db9fb32",
            "0x000000000000000000000000d2d120eb7ced38551ccefb48021067d41d6542d3"
          ],
          "data": "0x0000000000000000000000000000000000000000000000000dbd26d7444bf14b",
          "blockHash": "0x64d7fb1ac51e1a9c0dc2cc55cc29f72fb42d94a1e0633f4fae40788e998bae62",
          "blockNumber": "0x35e6a8d",
          "blockTimestamp": "0x69d0c019",
          "transactionHash": "0x9d871a622ba459ad9db258b83b1c1ba553c12f180a8eddc997f028fd74c62454",
          "transactionIndex": "0xf",
          "logIndex": "0x19",
          "removed": false
        }
      ],
      "logsBloom": "0x00000012000000000000000000000000000000000020000000000000010000000000000000000000400008000800401400100000040000000000000000000000000000001000000001000048000000000000000000000220000000000000000000000000020000000000000000004800000000000000400000000010000000000000000100000000000000000000200000000100010000008000000000000000000000000000000000000000000000000010000001000020000000000000000000000082000000000400000000000000000104000000000001000000000020004000000000000000004100000000000000000000000000000000000000000008",
      "type": "0x2",
      "transactionHash": "0x9d871a622ba459ad9db258b83b1c1ba553c12f180a8eddc997f028fd74c62454",
      "transactionIndex": "0xf",
      "blockHash": "0x64d7fb1ac51e1a9c0dc2cc55cc29f72fb42d94a1e0633f4fae40788e998bae62",
      "blockNumber": "0x35e6a8d",
      "gasUsed": "0x7366c",
      "effectiveGasPrice": "0x1312d01",
      "blobGasUsed": "0xf0a0",
      "from": "0xd2d120eb7ced38551ccefb48021067d41d6542d3",
      "to": "0xc348b42efe8831845c5ce5b460bcdfe5c4a2f78d",
      "contractAddress": null,
      "daFootprintGasScalar": "0x190",
      "l1BaseFeeScalar": "0x0",
      "l1BlobBaseFee": "0x83f2e9",
      "l1BlobBaseFeeScalar": "0x0",
      "l1Fee": "0x0",
      "l1GasPrice": "0xae919d7",
      "l1GasUsed": "0x9ad"
    },
    {
      "status": "0x1",
      "cumulativeGasUsed": "0x424b0c",
      "logs": [
        {
          "address": "0x277ee5801d5d1e5126a76c986c96923ab5ec54ed",
          "topics": [
            "0xbc2c050176af0f1aa90d03264c2fa7759f0c00cac6d105fdf72419d989c74756"
          ],
          "data": "0x000000000000000000000000000000000000000000000000000000000000271000000000000000000000000000000000000000000000000000000000000000000000000000000000000000000000000000000000000000000de0b6b3a7640000",
          "blockHash": "0x64d7fb1ac51e1a9c0dc2cc55cc29f72fb42d94a1e0633f4fae40788e998bae62",
          "blockNumber": "0x35e6a8d",
          "blockTimestamp": "0x69d0c019",
          "transactionHash": "0x32dcbd4287343a15fb761e2146500423ac4fc0dc1213b41a36ad939649458d10",
          "transactionIndex": "0x10",
          "logIndex": "0x1a",
          "removed": false
        },
        {
          "address": "0xc5e851fec9188dd4f6ccb2ebc134b33210d4ac78",
          "topics": [
            "0x9d1f0c448150fafee9ee6e790c1f25ed2f9f658904558043edd1976f56828362",
            "0x0000000000000000000000000000000000000000000000000000000000000000"
          ],
          "data": "0x000000000000000000000000000000000000000000000000000000000000271000000000000000000000000000000000000000000000000000000000000000000000000000000000000000000000000000000000000000000de0b6b3a7640000",
          "blockHash": "0x64d7fb1ac51e1a9c0dc2cc55cc29f72fb42d94a1e0633f4fae40788e998bae62",
          "blockNumber": "0x35e6a8d",
          "blockTimestamp": "0x69d0c019",
          "transactionHash": "0x32dcbd4287343a15fb761e2146500423ac4fc0dc1213b41a36ad939649458d10",
          "transactionIndex": "0x10",
          "logIndex": "0x1b",
          "removed": false
        },
        {
          "address": "0x360e68faccca8ca495c1b759fd9eee466db9fb32",
          "topics": [
            "0x40e9cecb9f5f1f1c5b9c97dec2917b7ee92e57ba5563708daca94dd84ad7112f",
            "0x59dde6b4745ff07f7da3bc64e78357d41caca6456848bd4ec29c6aaafae8af79",
            "0x000000000000000000000000c348b42efe8831845c5ce5b460bcdfe5c4a2f78d"
          ],
          "data": "0x0000000000000000000000000000000000000000000000000dbd38ab2afa0af4fffffffffffffffffffffffffffffffffffffffffffffffff21f494c589c00000000000000000000000000000000000000000001000000006bc316dffbf0bcc500000000000000000000000000000000000000000000152d02c7e14af680000000000000000000000000000000000000000000000000000000000000000000000000000000000000000000000000000000000000000000000000000000002710",
          "blockHash": "0x64d7fb1ac51e1a9c0dc2cc55cc29f72fb42d94a1e0633f4fae40788e998bae62",
          "blockNumber": "0x35e6a8d",
          "blockTimestamp": "0x69d0c019",
          "transactionHash": "0x32dcbd4287343a15fb761e2146500423ac4fc0dc1213b41a36ad939649458d10",
          "transactionIndex": "0x10",
          "logIndex": "0x1c",
          "removed": false
        },
        {
          "address": "0x212ed261355021e04e8c18e2c32e1dba5d215c7e",
          "topics": [
            "0xddf252ad1be2c89b69c2b068fc378daa952ba7f163c4a11628f55a4df523b3ef",
            "0x000000000000000000000000360e68faccca8ca495c1b759fd9eee466db9fb32",
            "0x000000000000000000000000d2d120eb7ced38551ccefb48021067d41d6542d3"
          ],
          "data": "0x0000000000000000000000000000000000000000000000000dbd38ab2afa0af4",
          "blockHash": "0x64d7fb1ac51e1a9c0dc2cc55cc29f72fb42d94a1e0633f4fae40788e998bae62",
          "blockNumber": "0x35e6a8d",
          "blockTimestamp": "0x69d0c019",
          "transactionHash": "0x32dcbd4287343a15fb761e2146500423ac4fc0dc1213b41a36ad939649458d10",
          "transactionIndex": "0x10",
          "logIndex": "0x1d",
          "removed": false
        },
        {
          "address": "0xec083384525d8ecdd5c11e00e857d9094a2e7ee5",
          "topics": [
            "0xddf252ad1be2c89b69c2b068fc378daa952ba7f163c4a11628f55a4df523b3ef",
            "0x000000000000000000000000d2d120eb7ced38551ccefb48021067d41d6542d3",
            "0x000000000000000000000000360e68faccca8ca495c1b759fd9eee466db9fb32"
          ],
          "data": "0x0000000000000000000000000000000000000000000000000de0b6b3a7640000",
          "blockHash": "0x64d7fb1ac51e1a9c0dc2cc55cc29f72fb42d94a1e0633f4fae40788e998bae62",
          "blockNumber": "0x35e6a8d",
          "blockTimestamp": "0x69d0c019",
          "transactionHash": "0x32dcbd4287343a15fb761e2146500423ac4fc0dc1213b41a36ad939649458d10",
          "transactionIndex": "0x10",
          "logIndex": "0x1e",
          "removed": false
        }
      ],
      "logsBloom": "0x00000012000000000000000000000000000000000020000000000000010000000000000000000000400008000800401400100000040000000000000000000000000000001000000001000048000000000000000000000220000000000000000000000000020000000000000000004800000000000000400000000010000000000000000100000000000000000000200000000100010000008000000000000000000000000000000000000000000000000010000001000020000000000000000000000082000000000400000000000000000104000000000001000000000020004000000000000000004100000000000000000000000000000000000000000008",
      "type": "0x2",
      "transactionHash": "0x32dcbd4287343a15fb761e2146500423ac4fc0dc1213b41a36ad939649458d10",
      "transactionIndex": "0x10",
      "blockHash": "0x64d7fb1ac51e1a9c0dc2cc55cc29f72fb42d94a1e0633f4fae40788e998bae62",
      "blockNumber": "0x35e6a8d",
      "gasUsed": "0x3722b",
      "effectiveGasPrice": "0x1312d01",
      "blobGasUsed": "0x10040",
      "from": "0xd2d120eb7ced38551ccefb48021067d41d6542d3",
      "to": "0xc348b42efe8831845c5ce5b460bcdfe5c4a2f78d",
      "contractAddress": null,
      "daFootprintGasScalar": "0x190",
      "l1BaseFeeScalar": "0x0",
      "l1BlobBaseFee": "0x83f2e9",
      "l1BlobBaseFeeScalar": "0x0",
      "l1Fee": "0x0",
      "l1GasPrice": "0xae919d7",
      "l1GasUsed": "0xa4d"
    },
    {
      "status": "0x1",
      "cumulativeGasUsed": "0x45f1b8",
      "logs": [
        {
          "address": "0x277ee5801d5d1e5126a76c986c96923ab5ec54ed",
          "topics": [
            "0xbc2c050176af0f1aa90d03264c2fa7759f0c00cac6d105fdf72419d989c74756"
          ],
          "data": "0x000000000000000000000000000000000000000000000000000000000000271000000000000000000000000000000000000000000000000000000000000000000000000000000000000000000000000000000000000000008ac7230489e80000",
          "blockHash": "0x64d7fb1ac51e1a9c0dc2cc55cc29f72fb42d94a1e0633f4fae40788e998bae62",
          "blockNumber": "0x35e6a8d",
          "blockTimestamp": "0x69d0c019",
          "transactionHash": "0x50847aeed95390d40453be8823208de48beeff38f6e10076c48135443d911f41",
          "transactionIndex": "0x11",
          "logIndex": "0x1f",
          "removed": false
        },
        {
          "address": "0xc5e851fec9188dd4f6ccb2ebc134b33210d4ac78",
          "topics": [
            "0x9d1f0c448150fafee9ee6e790c1f25ed2f9f658904558043edd1976f56828362",
            "0x0000000000000000000000000000000000000000000000000000000000000000"
          ],
          "data": "0x000000000000000000000000000000000000000000000000000000000000271000000000000000000000000000000000000000000000000000000000000000000000000000000000000000000000000000000000000000008ac7230489e80000",
          "blockHash": "0x64d7fb1ac51e1a9c0dc2cc55cc29f72fb42d94a1e0633f4fae40788e998bae62",
          "blockNumber": "0x35e6a8d",
          "blockTimestamp": "0x69d0c019",
          "transactionHash": "0x50847aeed95390d40453be8823208de48beeff38f6e10076c48135443d911f41",
          "transactionIndex": "0x11",
          "logIndex": "0x20",
          "removed": false
        },
        {
          "address": "0x360e68faccca8ca495c1b759fd9eee466db9fb32",
          "topics": [
            "0x40e9cecb9f5f1f1c5b9c97dec2917b7ee92e57ba5563708daca94dd84ad7112f",
            "0x59dde6b4745ff07f7da3bc64e78357d41caca6456848bd4ec29c6aaafae8af79",
            "0x000000000000000000000000c348b42efe8831845c5ce5b460bcdfe5c4a2f78d"
          ],
          "data": "0xffffffffffffffffffffffffffffffffffffffffffffffff7538dcfb761800000000000000000000000000000000000000000000000000008960623de6888ba60000000000000000000000000000000000000000fff98338bfd66e8ed5b2900800000000000000000000000000000000000000000000152d02c7e14af6800000fffffffffffffffffffffffffffffffffffffffffffffffffffffffffffffffe0000000000000000000000000000000000000000000000000000000000002710",
          "blockHash": "0x64d7fb1ac51e1a9c0dc2cc55cc29f72fb42d94a1e0633f4fae40788e998bae62",
          "blockNumber": "0x35e6a8d",
          "blockTimestamp": "0x69d0c019",
          "transactionHash": "0x50847aeed95390d40453be8823208de48beeff38f6e10076c48135443d911f41",
          "transactionIndex": "0x11",
          "logIndex": "0x21",
          "removed": false
        },
        {
          "address": "0x212ed261355021e04e8c18e2c32e1dba5d215c7e",
          "topics": [
            "0xddf252ad1be2c89b69c2b068fc378daa952ba7f163c4a11628f55a4df523b3ef",
            "0x000000000000000000000000d2d120eb7ced38551ccefb48021067d41d6542d3",
            "0x000000000000000000000000360e68faccca8ca495c1b759fd9eee466db9fb32"
          ],
          "data": "0x0000000000000000000000000000000000000000000000008ac7230489e80000",
          "blockHash": "0x64d7fb1ac51e1a9c0dc2cc55cc29f72fb42d94a1e0633f4fae40788e998bae62",
          "blockNumber": "0x35e6a8d",
          "blockTimestamp": "0x69d0c019",
          "transactionHash": "0x50847aeed95390d40453be8823208de48beeff38f6e10076c48135443d911f41",
          "transactionIndex": "0x11",
          "logIndex": "0x22",
          "removed": false
        },
        {
          "address": "0xec083384525d8ecdd5c11e00e857d9094a2e7ee5",
          "topics": [
            "0xddf252ad1be2c89b69c2b068fc378daa952ba7f163c4a11628f55a4df523b3ef",
            "0x000000000000000000000000360e68faccca8ca495c1b759fd9eee466db9fb32",
            "0x000000000000000000000000d2d120eb7ced38551ccefb48021067d41d6542d3"
          ],
          "data": "0x0000000000000000000000000000000000000000000000008960623de6888ba6",
          "blockHash": "0x64d7fb1ac51e1a9c0dc2cc55cc29f72fb42d94a1e0633f4fae40788e998bae62",
          "blockNumber": "0x35e6a8d",
          "blockTimestamp": "0x69d0c019",
          "transactionHash": "0x50847aeed95390d40453be8823208de48beeff38f6e10076c48135443d911f41",
          "transactionIndex": "0x11",
          "logIndex": "0x23",
          "removed": false
        }
      ],
      "logsBloom": "0x00000012000000000000000000000000000000000020000000000000010000000000000000000000400008000800401400100000040000000000000000000000000000001000000001000048000000000000000000000220000000000000000000000000020000000000000000004800000000000000400000000010000000000000000100000000000000000000200000000100010000008000000000000000000000000000000000000000000000000010000001000020000000000000000000000082000000000400000000000000000104000000000001000000000020004000000000000000004100000000000000000000000000000000000000000008",
      "type": "0x2",
      "transactionHash": "0x50847aeed95390d40453be8823208de48beeff38f6e10076c48135443d911f41",
      "transactionIndex": "0x11",
      "blockHash": "0x64d7fb1ac51e1a9c0dc2cc55cc29f72fb42d94a1e0633f4fae40788e998bae62",
      "blockNumber": "0x35e6a8d",
      "gasUsed": "0x3a6ac",
      "effectiveGasPrice": "0x1312d01",
      "blobGasUsed": "0xf0a0",
      "from": "0xd2d120eb7ced38551ccefb48021067d41d6542d3",
      "to": "0xc348b42efe8831845c5ce5b460bcdfe5c4a2f78d",
      "contractAddress": null,
      "daFootprintGasScalar": "0x190",
      "l1BaseFeeScalar": "0x0",
      "l1BlobBaseFee": "0x83f2e9",
      "l1BlobBaseFeeScalar": "0x0",
      "l1Fee": "0x0",
      "l1GasPrice": "0xae919d7",
      "l1GasUsed": "0x9ad"
    }
  ],
  "libraries": [],
  "pending": [],
  "returns": {},
  "timestamp": 1775288346272,
  "chain": 196,
  "commit": "ea9fe2a"
}